:020000021000EC
:10E000000C9439F20C9460F20C9460F20C9460F26F
:10E010000C9460F20C9460F20C9460F20C9460F238
:10E020000C9460F20C9460F20C9460F20C9460F228
:10E030000C9460F20C9460F20C9460F20C9460F218
:10E040000C9460F20C9460F20C9460F20C9460F208
:10E050000C9460F20C9460F20C9460F20C9460F2F8
:10E060000C9460F20C9460F20C9460F20C9460F2E8
:10E070000C9460F20C9460F20C9460F20C9460F2D8
:10E080000C9460F20C9460F20C9460F241546D6553
:10E09000676131323834500041726475696E6F20A7
:10E0A0006578706C6F7265722073746B35303056A2
:10E0B00032206279204D4C5300426F6F746C6F6157
:10E0C0006465723E004875683F00436F6D70696C0F
:10E0D0006564206F6E20203D200043505520547908
:10E0E000706520202020203D20005F5F4156525F58
:10E0F000415243485F5F203D2000415652204C6909
:10E10000624320566572203D2000474343205665F8
:10E110007273696F6E20203D200043505520736953
:10E12000676E61747572653D20004C6F772066756F
:10E13000736520202020203D200048696768206604
:10E14000757365202020203D200045787420667579
:10E15000736520202020203D20004C6F636B2066DB
:10E16000757365202020203D2000536570203137D5
:10E17000203230313000312E362E3700342E332EFF
:10E1800033005623202020414444522020206F7029
:10E1900020636F64652020202020696E737472757F
:10E1A0006374696F6E2061646472202020496E740C
:10E1B000657272757074006E6F20766563746F722D
:10E1C00000726A6D702020006A6D702000576861CF
:10E1D0007420706F72743A00506F7274206E6F7496
:10E1E00020737570706F72746564004D7573742060
:10E1F00062652061206C657474657200200057723E
:10E20000697474696E672045450052656164696E82
:10E210006720454500656570726F6D206572726F8D
:10E220007220636F756E743D00504F525400303D44
:10E230005A65726F206164647265737320637472CF
:10E2400073003F3D43505520737461747300403D2B
:10E25000454550524F4D207465737400423D426CE9
:10E26000696E6B204C454400453D44756D702045FA
:10E270004550524F4D00463D44756D7020464C410F
:10E28000534800483D48656C70004C3D4C697374C0
:10E2900020492F4F20506F72747300513D517569A2
:10E2A000742026206A756D7020746F2075736572F6
:10E2B0002070676D00523D44756D702052414D00D5
:10E2C000563D73686F7720696E74657272757074ED
:10E2D00020566563746F727300593D506F727420DD
:10E2E000626C696E6B002A00524553455400494EDA
:10E2F000543000494E543100494E54320050434985
:10E300004E5430005043494E5431005043494E540E
:10E3100032005043494E5433005744540054494D41
:10E3200045523020434F4D50410054494D455230E5
:10E3300020434F4D50420054494D455230204F56D6
:10E34000460054494D4552312043415054005449F0
:10E350004D45523120434F4D50410054494D455297
:10E360003120434F4D50420054494D455231204FCA
:10E3700056460054494D45523220434F4D504100BE
:10E3800054494D45523220434F4D50420054494D5F
:10E39000455232204F56460054494D455233204392
:10E3A0004150540054494D45523320434F4D504144
:10E3B0000054494D45523320434F4D50420054497B
:10E3C0004D455233204F564600555341525430204C
:10E3D000525800555341525430205544524500552F
:10E3E0005341525430205458005553415254312017
:10E3F000525800555341525431205544524500550E
:10E4000053415254312054580053504920535443DF
:10E410000041444300414E414C4F4720434F4D5033
:10E420000045452052454144590054574900535036
:10E430004D205245414459002A00E8E2EEE2F3E261
:10E44000F8E2FDE204E30BE312E319E373E380E394
:10E450008DE342E34EE35BE368E31DE32AE337E346
:10E4600009E4C9E3D3E3DFE315E411E421E42AE49A
:10E470002EE411241FBECFEFD0E4DEBFCDBF11E0EC
:10E48000A0E0B1E0E8E8FCEF01E00BBF02C00790BC
:10E490000D92A030B107D9F711E0A0E0B1E001C0C2
:10E4A0001D92AC30B107E1F70E942AF40C9442FEB1
:10E4B00000E40EBF0FEF0DBF11241FBE0C942AF411
:10E4C0000C9400F020E030E040E059E005C0FA0193
:10E4D0003197F1F72F5F3F4F28173907C0F30895A1
:10E4E0009C01442737FD4095542FDA01C901860F5E
:10E4F000911DA11DB11DABBFFC018791882369F05F
:10E500008093C6008091C00086FFFCCF8091C00040
:10E5100080648093C0006F5FE8CF08958DE08093A2
:10E52000C6008091C00086FFFCCF8091C00080644F
:10E530008093C0008AE08093C6008091C00086FF6F
:10E54000FCCF8091C00080648093C00008950E9439
:10E5500070F20E948EF20895FC019081992359F087
:10E560009093C6008091C00086FFFCCF8091C000D0
:10E5700080648093C0003196992379F70895282FFD
:10E58000982F92959F70892F805D8A3308F0895F5C
:10E590008093C6008091C00086FFFCCF8091C000B0
:10E5A00080648093C000822F8F70982F905D9A3383
:10E5B00008F0995F9093C6008091C00086FFFCCF61
:10E5C0008091C00080648093C00008959C01FB018D
:10E5D000853691051CF46330710594F0C90164E639
:10E5E00070E00E94E3FD605D7F4F6093C600809104
:10E5F000C00086FFFCCF8091C00080648093C00083
:10E600002B30310514F43297B4F0C90164E670E0A0
:10E610000E94E3FD6AE070E00E94E3FD605D7F4FD1
:10E620006093C6008091C00086FFFCCF8091C0003F
:10E6300080648093C000C9016AE070E00E94E3FD3D
:10E64000C0968093C6008091C00086FFFCCF809169
:10E65000C00080648093C0000895877080648093B8
:10E660007C0080917A00806480937A0080917A00A7
:10E6700086FDFCCF2091780040917900942F80E0B6
:10E6800030E0282B392BC90108951F93182F89E2F8
:10E6900092EE60E00E9470F21093C6008091C0007C
:10E6A00086FFFCCF8091C00080648093C0000E94F0
:10E6B0008EF21F9108952F923F924F925F926F9228
:10E6C0007F928F929F92AF92BF92CF92DF92EF9202
:10E6D000FF920F931F93DF93CF93CDB7DEB762976F
:10E6E0000FB6F894DEBF0FBECDBF382E622ECA0122
:10E6F000DB015C016D01772420E2222E2E010894BB
:10E70000411C511C8BC081E0A81680E0B80681E056
:10E71000C80680E0D80628F0C601AA27BB270E94B9
:10E72000BFF2BB27AD2D9C2D8B2D0E94BFF28A2DF1
:10E730000E94BFF22092C6008091C00086FFFCCFED
:10E740008091C00080648093C0009DE29093C600D9
:10E750008091C00086FFFCCF8091C00080648093D0
:10E76000C0002092C6008091C00086FFFCCF80913F
:10E77000C00080648093C0001982860175018824DE
:10E780009924A1E03A1651F03A1620F0B2E03B1677
:10E7900061F409C00BBFF701779007C0C7010E9461
:10E7A0002CFE782E02C0F7017080872D0E94BFF2E8
:10E7B0002092C6008091C00086FFFCCF8091C000EF
:10E7C00080648093C000872D8052F401EF70F07058
:10E7D0008F3520F4E40DF51D708204C0E40DF51DA5
:10E7E0008EE280830894E11CF11C011D111D089428
:10E7F000811C911C90E18916910409F0C2CF80E13F
:10E8000090E0A0E0B0E0A80EB91ECA1EDB1E198A77
:10E81000C2010E94ACF20E948EF26A94662009F056
:10E8200072CF62960FB6F894DEBF0FBECDBFCF9108
:10E83000DF911F910F91FF90EF90DF90CF90BF90ED
:10E84000AF909F908F907F906F905F904F903F9090
:10E850002F9008952F923F924F925F926F927F92E6
:10E860008F929F92AF92BF92CF92DF92EF92FF92E0
:10E870000F931F93DF93CF93CDB7DEB7CD53D14026
:10E880000FB6F894DEBF0FBECDBF209A289A8091B4
:10E89000C00082608093C0008BE38093C40088E155
:10E8A0008093C1000000EE24FF248701B4E0AB2E6A
:10E8B000B12C99249394CC24DD2424C0C501019764
:10E8C000F1F70894E11CF11C011D111D21E9E2166C
:10E8D0002FE5F20621E0020720E0120718F0A1E080
:10E8E000CA2ED12CC801B70128E53BE140E050E039
:10E8F0000E94F6FD611571058105910519F485B138
:10E90000892585B98091C00087FD03C0C114D10459
:10E91000A9F2A6014F5F5F4FC25EDE4F5983488365
:10E92000CE51D140C25EDE4F68817981CE51D14057
:10E930006130710511F00C94C5FDC05DDE4F198288
:10E940001882C053D14060E0C15DDE4F1882CF52C3
:10E95000D140AA24BB24C05EDE4F188219821A82DD
:10E960001B82C052D140CE5CDE4F188219821A82BF
:10E970001B82C253D14080E090E0A0E0B0E0ABBF8A
:10E98000FC01A791B691C45CDE4FB983A883CC5338
:10E99000D1400C94C0FDC25EDE4FE881F981CE51BA
:10E9A000D140319709F52091C600C25EDE4F198231
:10E9B0001882CE51D14022C02F5F3F4F4F4F5F4F43
:10E9C0002130F0EA3F07FCE84F07F0E05F0780F0F6
:10E9D000C45CDE4F08811981CC53D1400F5F1F4FBB
:10E9E00019F0EE27FF27099420E030E040E050E0E6
:10E9F0008091C00087FFE0CF2091C600213209F04E
:10EA0000B9C50894A11CB11C33E0A316B10409F0E8
:10EA1000B3C500E010E018C041E24093C600809109
:10EA2000C00086FFFCCF8091C00080648093C0004E
:10EA30002F5F3F4F2931310579F70E948EF20F5F2A
:10EA40001F4F0530110519F020E030E0E5CF10929E
:10EA500008011092090110920A0110920B01109204
:10EA60000401109205011092060110920701109204
:10EA7000000110920101109202011092030188E935
:10EA800090EE60E00E94A7F289EB90EE60E00E94B9
:10EA900070F28091C00087FFFCCF9091C600903645
:10EAA00008F09F759032B8F09093C6008091C00036
:10EAB00086FFFCCF8091C00080648093C00080E21C
:10EAC0008093C6008091C00086FFFCCF8091C0007B
:10EAD00080648093C000983409F4DBC19934B8F4A1
:10EAE000923409F45DC1933458F4903319F19033A2
:10EAF00008F43DC59F33A1F1903409F038C5BDC07D
:10EB0000953409F474C1963409F031C59CC192352D
:10EB100009F41AC2933538F49C3409F4F9C19135DB
:10EB200009F025C507C2963509F434C2993509F0B4
:10EB30001EC587C48EE292EE62E00E94A7F2109298
:10EB40000401109205011092060110920701109223
:10EB500008011092090110920A0110920B0117C1CD
:10EB600082E492EE62E00E94A7F288E990EE60E013
:10EB70000E94A7F28AEC90EE60E00E9470F28AE6B2
:10EB800091EE60E00E94A7F28AED90EE60E00E94B4
:10EB900070F28CE890EE60E00E94A7F28AEE90EEB0
:10EBA00060E00E9470F283E390E061E070E00E9418
:10EBB000E6F20E948EF28AE091EE60E00E9470F22E
:10EBC0008CE791EE60E00E94A7F28AEF90EE60E0A1
:10EBD0000E9470F286E791EE60E00E94A7F28AE15F
:10EBE00091EE60E00E9470F28EE10E94BFF287E930
:10EBF0000E94BFF285E00E94BFF20E948EF28AE27C
:10EC000091EE60E00E9470F219E0E0E0F0E0109315
:10EC10005700E4918E2F0E94BFF20E948EF28AE389
:10EC200091EE60E00E9470F2E3E0F0E01093570094
:10EC3000E4918E2F0E94BFF20E948EF28AE491EE40
:10EC400060E00E9470F2E2E0F0E010935700E4917F
:10EC50008E2F0E94BFF20E948EF28AE591EE60E054
:10EC60000E9470F2E1E0F0E0109357001491812FC0
:10EC70000E94BFF20E948EF207CF8EE492EE62E015
:10EC80000E94A7F28EEF91EE60E00E94A7F20E9430
:10EC90008EF200E010E019C0C8016F2D0E9434FE12
:10ECA000FF2031F48CEF91EE60E00E9470F20BC017
:10ECB000F092C6008091C00086FFFCCF8091C0001A
:10ECC00080648093C0000F5F1F4FC80188569F412A
:10ECD000AA2797FDA095BA2FABBFFC01F7905AE287
:10ECE000F51621F062E000301607B1F60E948EF2B0
:10ECF0000E948EF28AE092EE60E00E94A7F20E94EB
:10ED00008EF200E010E0CC24DD241EC0C8010E9479
:10ED10002CFEF82E882331F48CEF91EE60E00E94F7
:10ED200070F20BC08093C6008091C00086FFFCCFBC
:10ED30008091C00080648093C000FE1419F0089494
:10ED4000C11CD11C0F5F1F4FC80188569F41AA27C5
:10ED500097FDA095BA2FABBFFC01E7907AE2E716CA
:10ED600021F082E00030180789F60E948EF20E949E
:10ED70008EF285E192EE60E00E9470F2C60161E0E1
:10ED800070E00E94E6F20E948EF20E948EF21092D3
:10ED9000000110920101109202011092030174CE41
:10EDA0008CE592EE62E00E94A7F2209A289A16C0A3
:10EDB000289880E090E0E0E0F9E03197F1F70196E3
:10EDC00084369105C1F7289A80E090E0E0E0F9E010
:10EDD0003197F1F7019684369105C1F78091C00013
:10EDE00087FFE6CF8091C00087FFFCCFBAC388E6DB
:10EDF00092EE62E00E94A7F2409100015091010161
:10EE0000609102017091030181E020E10E945BF3B7
:10EE10008091000190910101A0910201B091030144
:10EE200080509F4FAF4FBF4F8093000190930101DF
:10EE3000A0930201B093030180509041A040B040E4
:10EE400008F422CEA4CF86E792EE62E00E94A7F2F9
:10EE500040910401509105016091060170910701F4
:10EE600080E020E10E945BF3809104019091050114
:10EE7000A0910601B091070180509F4FAF4FBF4F47
:10EE80008093040190930501A0930601B0930701BC
:10EE9000FBCD83E892EE62E00E94A7F28EE292EE52
:10EEA00060E00E94A7F282E492EE60E00E94A7F286
:10EEB0008EE492EE60E00E94A7F28CE592EE60E0B4
:10EEC0000E94A7F288E692EE60E00E94A7F286E731
:10EED00092EE60E00E94A7F283E892EE60E00E946A
:10EEE000A7F28AE892EE60E00E94A7F28BE992EE28
:10EEF00060E00E94A7F285EB92EE60E00E94A7F22C
:10EF000080EC92EE60E00E94A7F289ED92EEB9CD1E
:10EF10008AE892EE62E00E94A7F281E40E9445F343
:10EF200082E40E9445F383E40E9445F384E40E9456
:10EF300045F3AACD8BE992EE62E00E94A7F29924F4
:10EF40009394AA24BB247FC385EB92EE62E00E94D7
:10EF5000A7F2409108015091090160910A01709156
:10EF60000B0182E020E10E945BF380910801909107
:10EF70000901A0910A01B0910B0180509F4FAF4F42
:10EF8000BF4F8093080190930901A0930A01B093A9
:10EF90000B017ACD80EC92EE62E00E94A7F28CE841
:10EFA00090EE60E00E94A7F282E891EE60E00E949D
:10EFB000A7F20AE314EECC5DDE4F19830883C45236
:10EFC000D140662477244301CA5DDE4F198218823E
:10EFD000C652D140A4019301569547953795279580
:10EFE000C85DDE4F288339834A835B83C852D14092
:10EFF000CA5DDE4F48815981C652D1404F5F5F4F95
:10F00000CA5DDE4F59834883C652D140CA0162E0CF
:10F0100070E00E94E6F250E25093C6008091C0007A
:10F0200086FFFCCF8091C00080648093C0006DE2B9
:10F030006093C6008091C00086FFFCCF8091C00025
:10F0400080648093C00070E27093C6008091C0001D
:10F0500086FFFCCF8091C00080648093C000C85DB3
:10F06000DE4FE880F9800A811B81C852D140BB275E
:10F07000A12F902F8F2D0E94BFF2C85DDE4F888197
:10F08000C852D1400E94BFF270E2F72EF092C60043
:10F090008091C00086FFFCCF8091C0008064809387
:10F0A000C0000DE30093C6008091C00086FFFCCF36
:10F0B0008091C00080648093C00010E21093C6006D
:10F0C0008091C00086FFFCCF8091C0008064809357
:10F0D000C0008BBEF3012791C45DDE4F2883CC5264
:10F0E000D140A22EBB24CC24DD240894611C711CC9
:10F0F000811C911C8BBEF3018791282E332444245C
:10F100005524142D032DF22CEE24EA0CFB1C0C1DAF
:10F110001D1D0894611C711C811C911C8BBEF30188
:10F120003791C35DDE4F3883CD52D1400894611CC6
:10F13000711C811C911C8BBEF3014791C25DDE4F97
:10F140004883CE52D1402DEF3FEF4FEF5FEF620E7D
:10F15000731E841E951E0E94BFF230E23093C600DB
:10F160008091C00086FFFCCF8091C00080648093B6
:10F17000C000C45DDE4F8881CC52D1400E94BFF2F6
:10F1800040E24093C6008091C00086FFFCCF809192
:10F19000C00080648093C000C25DDE4F8881CE5283
:10F1A000D1400E94BFF250E25093C6008091C0004F
:10F1B00086FFFCCF8091C00080648093C000C35D57
:10F1C000DE4F8881CD52D1400E94BFF260E2609351
:10F1D000C6008091C00086FFFCCF8091C000806493
:10F1E0008093C0007FEFE7167FEFF70670E0070718
:10F1F00070E0170731F487EB91EE60E00E9470F247
:10F20000DFC0D801C7018070907CA070B0708050C2
:10F21000904CA040B040D1F52FEF3FE340E050E0EC
:10F22000E222F32204231523C85DDE4FA880B980B3
:10F23000CA80DB80C852D140AE0CBF1CC01ED11E9C
:10F24000AA0CBB1CCC1CDD1C81EC91EE60E00E9482
:10F2500070F2BB27A12F902F8F2D0E94BFF28E2D11
:10F260000E94BFF230E23093C6008091C00086FF5A
:10F27000FCCF8091C00080648093C0004EE3409337
:10F28000C6008091C00086FFFCCF87C06EE07EEF95
:10F2900080E090E0E622F722082319237CE0E716BD
:10F2A00074E9F70670E0070770E0170709F088C0F7
:10F2B000C25DDE4F8881CE52D140E82EFF2400E0AF
:10F2C00010E0102F0F2DFE2CEE24C35DDE4F988131
:10F2D000CD52D140E90EF11C011D111DD601C50111
:10F2E00081709070A070B070DC0199278827E80EBB
:10F2F000F91E0A1F1B1F20EF30E040E050E0A22261
:10F30000B322C422D522F1E1AA0CBB1CCC1CDD1C0B
:10F31000FA95D1F7EA0CFB1C0C1D1D1D41E050E0D5
:10F3200060E070E02422352246225722E5E1220CDB
:10F33000331C441C551CEA95D1F7E20CF31C041D48
:10F34000151D57016801AA0CBB1CCC1CDD1C88ECE8
:10F3500091EE60E00E9470F2C801AA27BB270E94CC
:10F36000BFF2BB27A12F902F8F2D0E94BFF28E2DB1
:10F370000E94BFF250E25093C6008091C00086FF09
:10F38000FCCF8091C00080648093C0006EE36093E6
:10F39000C6008091C00086FFFCCF8091C0008064D1
:10F3A0008093C000C601AA27BB270E94BFF2BB27DB
:10F3B000AD2D9C2D8B2D0E94BFF28A2D0E94BFF295
:10F3C00070E27093C6008091C00086FFFCCF8091F0
:10F3D000C00080648093C000CC5DDE4FE881F9817D
:10F3E000C452D140CF01AA2797FDA095BA2FABBF39
:10F3F000FC018791969160E00E9470F20E948EF26B
:10F40000CC5DDE4F08811981C452D1400E5F1F4F81
:10F41000CC5DDE4F19830883C452D140CA5DDE4FF4
:10F4200028813981C652D1402332310509F42CCBD1
:10F4300044E050E060E070E0640E751E861E971E8A
:10F44000C9CD89ED92EE62E00E94A7F28DEC91EEBB
:10F4500060E00E9470F28091C00087FFFCCF1091A5
:10F46000C6001F751093C6008091C00086FFFCCFB8
:10F470008091C00080648093C0000E948EF2812F32
:10F4800081548A3108F070C0123411F1133420F421
:10F49000113409F05FC006C0133481F1143409F04F
:10F4A00059C042C08FEF81B90DC082B1809582B939
:10F4B00080E090E0E0E0F9E03197F1F70196883CD8
:10F4C0009105C1F78091C00087FFEFCF12B845C00A
:10F4D0008FEF84B90DC085B1809585B980E090E04B
:10F4E000E0E0F9E03197F1F70196883C9105C1F72A
:10F4F0008091C00087FFEFCF15B82FC08FEF87B97D
:10F500000DC088B1809588B980E090E0E0E0F9E036
:10F510003197F1F70196883C9105C1F78091C000C1
:10F5200087FFEFCF18B819C08FEF8AB90DC08BB124
:10F5300080958BB980E090E0E0E0F9E03197F1F759
:10F540000196883C9105C1F78091C00087FFEFCFFD
:10F550001BB803C088ED91EE94CA8091C00087FF6C
:10F56000FCCF8091C60090CA8BEE91EE8ACA85ECE2
:10F5700090EE87CAAA24BB24933061F1943028F41A
:10F58000913089F0923008F508C09530B1F195308E
:10F5900040F1963009F053C04EC02B3109F0FBC941
:10F5A00091E06BE1F8C9213041F0C15DDE4F588137
:10F5B000CF52D140251709F003C36227C15DDE4F4A
:10F5C0002883CF52D14092E0E6C9B22FA0E0622753
:10F5D00093E0E1C9822F90E0A82BB92B622794E039
:10F5E000DAC92E3009F0ECC2622795E0C05DDE4F2B
:10F5F00019821882C053D140CEC9E1E0F0E0EC0F8F
:10F60000FD1FC05DDE4FE880F980C053D140EE0D94
:10F61000FF1D208387010F5F1F4FC05DDE4F1983E1
:10F620000883C053D14062270A171B0709F0B3C9EA
:10F63000D80196E0B0C9261709F0C2C203C09730BE
:10F6400009F0A9C999248981833109F4FCC0843166
:10F65000C8F4863009F4C2C0873050F4823009F40F
:10F66000F0C0833009F458C0813009F00AC23EC0AE
:10F67000813109F462C0823108F0A6C0803109F0FE
:10F6800000C2DFC0883109F472C0893150F485317D
:10F6900009F4D9C0853108F477C1863109F0F1C188
:10F6A00073C18A3109F457C08A3108F47CC08B31A8
:10F6B00009F446C08D3109F0E4C18D81803311F029
:10F6C00090E00AC08F81882311F49EE105C081304B
:10F6D00011F095E001C097E91A821B828D818C831D
:10F6E0001D829E831F8227E030E0CFC11A8288E00E
:10F6F0008B8381E48C8386E58D8382E58E8389E428
:10F700008F8383E5888780E589878FE58A8782E311
:10F710008B872BE030E0B9C18A81813941F0823991
:10F7200041F0803911F48FE005C080E003C082E031
:10F7300001C08AE01A828B8344C09924939481C0CB
:10F740008D81882311F48EE12CC0813011F085E089
:10F7500028C087E926C01A82E1E0F0E089E08093C2
:10F76000570084918B831C8224E030E08EC18B8112
:10F77000803589F48C81883039F4E2E0F0E089E06A
:10F780008093570084910DC0E0E0F0E089E0809321
:10F790005700849106C0E3E0F0E089E080935700D1
:10F7A00084911A82DFCF8D81836C99E0E1E0F0E0F3
:10F7B000082E90935700E89507B600FCFDCF1A82FB
:10F7C0001B8223E030E061C11A82CE5CDE4F1882DA
:10F7D00019821A821B82C253D14055C18A8190E09E
:10F7E000A0E0B0E0582F4427332722278B8190E0F8
:10F7F000A0E0B0E0DC0199278827282B392B4A2B81
:10F800005B2B8D8190E0A0E0B0E0282B392B4A2BB8
:10F810005B2B8C8190E0A0E0B0E0BA2FA92F982F4D
:10F820008827282B392B4A2B5B2B220F331F441F91
:10F83000551FC05EDE4F288339834A835B83C052E5
:10F84000D1401A8220C19A812B81833149F0C05E58
:10F85000DE4F488159816A817B81C052D1408AC084
:10F86000CE5CDE4F488159816A817B81C253D14091
:10F87000403080EC580781E0680780E07807F0F4BA
:10F8800083E0FA0160935B0080935700E89507B628
:10F8900000FCFDCFCE5CDE4F488159816A817B81BF
:10F8A000C253D14040505F4F6F4F7F4FCE5CDE4F11
:10F8B000488359836A837B83C253D140C95CDE4F3E
:10F8C0009883C753D140CA5CDE4F1882C653D140DB
:10F8D000022F10E0CA5CDE4F68817981C653D140A7
:10F8E000062B172BC05EDE4F488159816A817B81D0
:10F8F000C052D140DE011B9631E08C9111962C91C3
:10F9000011971296C75CDE4F2883C953D140C85C5B
:10F91000DE4F1882C853D14090E0C85CDE4FE881CA
:10F92000F981C853D1408E2B9F2B0C01FA016093B3
:10F930005B0030935700E89511244E5F5F4F6F4F87
:10F940007F4F02501040C9F685E0C05EDE4FE88070
:10F95000F9800A811B81C052D140F70100935B00FE
:10F9600080935700E89507B600FCFDCF81E18093B6
:10F970005700E8951A82C05EDE4F488359836A8338
:10F980007B83C052D1407FC0FA80C55CDE4FF882D5
:10F99000CB53D140C65CDE4F1882CA53D1408B8115
:10F9A000C82EDD24C65CDE4F08811981CA53D140C0
:10F9B000C02AD12A1A828981BE016D5F7F4F8431AE
:10F9C00021F59601C05EDE4FE880F9800A811B8137
:10F9D000C052D1400BBFF70187919691DB018C9308
:10F9E00011969C936E5F7F4FD801C7010296A11DAF
:10F9F000B11DC05EDE4F88839983AA83BB83C0524A
:10FA0000D14022503040F1F636C0C05EDE4F288132
:10FA100039814A815B81C052D1400894C108D10824
:10FA2000760100E010E00894C11CD11C0894E11C90
:10FA3000F11C011D111DE20EF31E041F151F21BD37
:10FA4000BB27A52F942F832F82BD2F5F3F4F4F4F92
:10FA50005F4FF89A80B5DB018D93BD012E153F05F0
:10FA60004007510761F7C05EDE4F288339834A8320
:10FA70005B83C052D14096012D5F3F4FFB01108246
:10FA800004C080EC8A8322E030E08BE18093C600E2
:10FA90008091C00086FFFCCF8091C000806480937D
:10FAA000C000C15DDE4FF881CF52D140F093C60057
:10FAB0008091C00086FFFCCF8091C000806480935D
:10FAC000C000432F3093C6008091C00086FFFCCF5A
:10FAD0008091C00080648093C000922F2093C60064
:10FAE0008091C00086FFFCCF8091C000806480932D
:10FAF000C0008EE08093C6008091C00086FFFCCFDE
:10FB00008091C00080648093C00065E1C15DDE4FDC
:10FB1000E880CF52D1406E2569276427FE013196D7
:10FB200010C090819093C6008091C00086FFFCCFEA
:10FB300031968091C00080648093C0006927215075
:10FB400030402115310569F76093C6008091C000EF
:10FB500086FFFCCF8091C00080648093C00085B197
:10FB600091E0892785B9992081F4C15DDE4F088134
:10FB7000CF52D1400F5FC15DDE4F0883CF52D140DD
:10FB800090E0A0E0B0E00C94CBF42098289880E0BE
:10FB900090E020E039E0F9013197F1F701968436E1
:10FBA0009105C9F700008091C0008D7F8093C0004F
:10FBB00081E180935700E895EE27FF270994FFCF56
:10FBC00090E00C94CBF497FB092E07260AD077FD22
:10FBD00004D02ED006D000201AF4709561957F4F86
:10FBE0000895F6F7909581959F4F0895A1E21A2EFA
:10FBF000AA1BBB1BFD010DC0AA1FBB1FEE1FFF1FD1
:10FC0000A217B307E407F50720F0A21BB30BE40B20
:10FC1000F50B661F771F881F991F1A9469F7609567
:10FC20007095809590959B01AC01BD01CF01089521
:10FC3000AA1BBB1B51E107C0AA1FBB1FA617B70712
:10FC400010F0A61BB70B881F991F5A95A9F780952E
:10FC50009095BC01CD010895F999FECF92BD81BD6B
:10FC6000F89A992780B50895262FF999FECF1FBAE3
:10FC700092BD81BD20BD0FB6F894FA9AF99A0FBED5
:08FC800001960895F894FFCFEE
:040000031000E00009
:00000001FF
