:103800000C942A1C0C943C1C0C943C1C0C943C1CEA
:103810000C943C1C0C943C1C0C943C1C0C943C1CC8
:103820000C943C1C0C943C1C0C943C1C0C943C1CB8
:103830000C943C1C0C943C1C0C943C1C0C943C1CA8
:103840000C943C1C0C943C1C0C943C1C0C943C1C98
:103850000C943C1C11241FBECFE5D4E0DEBFCDBFCD
:103860000E944C1C0C94881F04E00EBF0FE50DBF96
:1038700011241FBE0C944C1C0C94001C20E030E062
:1038800040ED57E005C0FA013197F1F72F5F3F4F48
:1038900028173907C0F308952F923F924F925F92F5
:1038A0006F927F928F929F92AF92BF92CF92DF9250
:1038B000EF92FF920F931F93DF93CF93CDB7DEB7B5
:1038C000C252D1400FB6F894DEBF0FBECDBF04E0A8
:1038D0000EBF0FE50DBFD79ADF9A80E189B988E165
:1038E0008AB9000083E78CB95E9BFECF5E9A84E7BD
:1038F0008CB95E9BFECF5E9A8BE68CB95E9BFECF49
:103900005E9A86E78CB95E9BFECF5E9A82E38CB9A5
:103910005E9BFECF5E9A8DE08CB95E9BFECF5E9A79
:103920008AE08CB95E9BFECF5E9A80E090E020ED4D
:1039300037E0F9013197F1F7019684369105C9F71F
:10394000EE24FF24870124E0A22EB12CCC24DD2418
:1039500024C0C5010197F1F70894E11CF11C011D79
:10396000111D21E9E2162FE5F20621E0020720E011
:10397000120718F091E0C92ED12CC801B70127EC2D
:103980003BE140E050E00E94661F61157105810532
:10399000910519F48BB380588BBB5F9903C0C11498
:1039A000D104B9F2C6010196C25EDE4F99838883C5
:1039B000CE51D140C25EDE4FE881F981CE51D14077
:1039C000319709F050C2CC24DD2460E0C05EDE4FA8
:1039D0001882C052D140EE24FF24AA24BB24F60151
:1039E00085919491CF5DDE4F99838883C152D140F8
:1039F00036C2C25EDE4FE881F981CE51D1403197A7
:103A0000F9F43CB1C25EDE4F19821882CE51D1402A
:103A10001EC00196A11DB11D8130F2E19F07FAE79A
:103A2000AF07F0E0BF0780F0CF5DDE4F888199815E
:103A3000C152D1408F5F9F4F19F0EE27FF270994A5
:103A400080E090E0A0E0B0E05F9BE3CF3CB143308A
:103A500061F1443028F4413089F0423008F508C063
:103A6000453091F1453040F1463009F043C03EC049
:103A70003B3109F0BECF41E06BE1BBCF313041F0CB
:103A8000C05EDE4FF881C052D1403F1709F01CC222
:103A90006327C05EDE4F3883C052D14042E0A9CFD9
:103AA000132F00E0632743E0A4CF832F90E0082B7F
:103AB000192B632744E09DCF3E3009F005C26327F0
:103AC00045E0CC24DD2495CFE1E0F0E0EC0FFD1FD4
:103AD000EC0DFD1D30830894C11CD11C6327C0165A
:103AE000D10609F086CF860146E083CF361709F06C
:103AF000EBC103C0473009F07CCF9981933109F4C1
:103B0000D1C09431C0F4963009F4C1C0973048F464
:103B1000923069F1933009F45BC0913009F051C1E2
:103B200041C0913109F465C0923108F0ACC09031C8
:103B300009F047C11CC0983109F474C0993150F4A0
:103B4000953109F4AFC0953108F403C1963109F0FD
:103B500038C1FFC09A3109F45CC09A3108F482C0C0
:103B60009B3109F44BC09D3109F02BC102C090E09C
:103B700041C08D81803311F090E00AC08F8188238D
:103B800011F49EE105C0813011F093E001C094E989
:103B90001A821B828D818C831D829E831F8247E047
:103BA00050E013C11A8288E08B8381E48C8386E520
:103BB0008D8382E58E8389E48F8383E5888780E522
:103BC00089878FE58A8782E38B874BE050E0FDC0D1
:103BD0008A81813941F0823941F0803911F48FE0D6
:103BE00005C080E003C082E001C08AE01A828B83B6
:103BF00047C091E01A8242E050E0E8C08D818823FE
:103C000011F48EE129C0813011F083E025C084E9F0
:103C100023C01A82E1E0F0E029E020935700E4910C
:103C2000EB831CC08B81803589F48C81883039F41A
:103C300029E0E2E0F0E02093570084910DC029E0F4
:103C4000E0E0F0E020935700849106C0E3E0F0E06C
:103C500099E09093570084911A828B831C8244E0F0
:103C600050E0B3C08D81836C29E0E1E0F0E0082EE4
:103C700020935700E89507B600FCFDCF1A821B82FF
:103C800043E050E0A2C01A82AA24BB249CC07C80DE
:103C900066248D81E82EFF24E628F728EE0CFF1C11
:103CA0001A8291C05A8044248B81682F70E0642965
:103CB0007529933109F037C080E0A81680E3B80673
:103CC00060F423E0F50120935700E89507B600FC67
:103CD000FDCF80E890E0A80EB91EA701DE011B967B
:103CE0008C9111962C9111971296922E882490E027
:103CF0008829992921E0FA010C0120935700E895C1
:103D000011244E5F5F4F6250704051F725E0F7017C
:103D100020935700E89507B600FCFDCF81E1809322
:103D20005700E89513C0A701FB01DE011B964EBBAF
:103D30005FBB4F5F5F4F8D918DBBE29AE19AE19936
:103D4000FECF3197A1F7A701460F571F1A827A01BC
:103D50003AC03A8022248B81A82FB0E0A229B3294F
:103D60001A8289818431A1F4BD018E010D5F1F4F3C
:103D7000F70185919491F801808391830E5F1F4F25
:103D800082E090E0E80EF91E6250704089F713C09F
:103D9000A701BD018E010D5F1F4F4EBB5FBB4F5F83
:103DA0005F4FE09A8DB3F80181938F0161507040AD
:103DB000A1F7EA0EFB1EAD014D5F5F4FF8011082C7
:103DC00004C0F0ECFA8342E050E090E02BE12CB923
:103DD0005E9BFECF5E9AC05EDE4F8881C052D140AE
:103DE0008CB95E9BFECF5E9A752F5CB95E9BFECF51
:103DF0005E9A342F4CB95E9BFECF5E9A8EE08CB9F2
:103E00005E9BFECF5E9A65E1C05EDE4FE881C052E8
:103E1000D1406E2763276727FE01319609C0808154
:103E20008CB95E9BFECF31965E9A68274150504018
:103E300041155105A1F76CB95E9BFECF5E9A8BB31D
:103E400080588BBB992379F4C05EDE4FF881C05255
:103E5000D140FF5FC05EDE4FF883C052D14040E0EA
:103E600000E010E0C6CD8AE68CB95E9BFECF5E9A7C
:103E70008DE08CB95E9BFECF5E9A8AE08CB95E9B2A
:103E8000FECF5E9A80E090E020ED37E0F9013197B7
:103E9000F1F7019684369105C9F7D798DF9880E04D
:103EA00090E020ED37E0F9013197F1F70196843683
:103EB0009105C9F70000599881E180935700E89572
:103EC000EE27FF270994FFCF40E093CDA1E21A2E01
:103ED000AA1BBB1BFD010DC0AA1FBB1FEE1FFF1FAE
:103EE000A217B307E407F50720F0A21BB30BE40BFE
:103EF000F50B661F771F881F991F1A9469F7609545
:103F00007095809590959B01AC01BD01CF010895FE
:043F1000F894FFCF53
:0400000300003800C1
:00000001FF
