:10E000000C94F5720C940F730C940F730C940F73A3
:10E010000C940F730C940F730C940F730C940F7378
:10E020000C940F730C940F730C940F730C940F7368
:10E030000C940F730C940F730C940F730C940F7358
:10E040000C940F730C940F730C940F730C940F7348
:10E050000C940F730C940F730C940F730C940F7338
:10E060000C940F730C940F730C940F730C940F7328
:10E070000C940F730C940F730C940F730C940F7318
:10E080000C940F730C940F730C940F730C940F7308
:10E090000C940F730C940F730C940F730C940F73F8
:10E0A0000C940F730C940F730C940F730C940F73E8
:10E0B0000C940F730C940F730C940F730C940F73D8
:10E0C0000C940F730C940F730C940F730C940F73C8
:10E0D0000C940F730C940F730C940F730C940F73B8
:10E0E0000C940F7341546D65676136343000417292
:10E0F0006475696E6F206578706C6F7265722073DD
:10E10000746B3530305632206279204D4C530042CA
:10E110006F6F746C6F616465723E004875683F0094
:10E12000436F6D70696C6564206F6E20203D200028
:10E13000435055205479706520202020203D200038
:10E140005F5F4156525F415243485F5F203D200070
:10E15000415652204C69624320566572203D200092
:10E160004743432056657273696F6E20203D20003F
:10E17000435055207369676E61747572653D200068
:10E180004C6F77206675736520202020203D20008D
:10E19000486967682066757365202020203D20004F
:10E1A000457874206675736520202020203D20006E
:10E1B0004C6F636B2066757365202020203D200026
:10E1C000536570203234203230313000312E362EFB
:10E1D0003700342E332E3300562320202041444470
:10E1E000522020206F7020636F6465202020202043
:10E1F000696E737472756374696F6E2061646472A2
:10E20000202020496E74657272757074006E6F20E4
:10E21000766563746F7200726A6D702020006A6D9B
:10E220007020005768617420706F72743A00506FEC
:10E230007274206E6F7420737570706F7274656481
:10E24000004D7573742062652061206C657474657F
:10E25000720020005772697474696E67204545002A
:10E2600052656164696E6720454500656570726F2F
:10E270006D206572726F7220636F756E743D005011
:10E280004F525400303D5A65726F2061646472656C
:10E2900073732063747273003F3D43505520737451
:10E2A00061747300403D454550524F4D2074657375
:10E2B0007400423D426C696E6B204C454400453D04
:10E2C00044756D7020454550524F4D00463D447594
:10E2D0006D7020464C41534800483D48656C7000C5
:10E2E0004C3D4C69737420492F4F20506F727473EA
:10E2F00000513D517569742026206A756D70207437
:10E300006F20757365722070676D00523D44756DA6
:10E31000702052414D00563D73686F7720696E74CE
:10E3200065727275707420566563746F72730059EC
:10E330003D506F727420626C696E6B002A0052450A
:10E3400053455400494E543000494E543100494E13
:10E35000543200494E543300494E543400494E540F
:10E360003500494E543600494E5437005043494E0B
:10E370005430005043494E5431005043494E5432BA
:10E38000005744540054494D45523020434F4D509E
:10E39000410054494D45523020434F4D50420054A6
:10E3A000494D455230204F56460054494D45523153
:10E3B00020434150540054494D45523120434F4D64
:10E3C00050410054494D45523120434F4D50420079
:10E3D00054494D45523120434F4D50430054494D0F
:10E3E000455231204F56460054494D455232204344
:10E3F0004F4D50410054494D45523220434F4D50EE
:10E40000420054494D455232204F56460054494D22
:10E4100045523320434150540054494D4552332016
:10E42000434F4D50410054494D45523320434F4DC9
:10E4300050420054494D45523320434F4D50430004
:10E4400054494D455233204F56460054494D45528C
:10E450003420434150540054494D45523420434FD9
:10E460004D50410054494D45523420434F4D504288
:10E470000054494D45523420434F4D5043005449B8
:10E480004D455234204F56460054494D4552352093
:10E49000434150540054494D45523520434F4D504F
:10E4A000410054494D45523520434F4D5042005490
:10E4B000494D45523520434F4D50430054494D4539
:10E4C0005235204F56460055534152543020525831
:10E4D0000055534152543020554452450055534144
:10E4E0005254302054580055534152543120525800
:10E4F0000055534152543120554452450055534123
:10E5000052543120545800555341525432205258DD
:10E510000055534152543220554452450055534101
:10E5200052543220545800555341525433205258BB
:10E5300000555341525433205544524500555341E0
:10E5400052543320545800535049205354430041EF
:10E55000444300414E414C4F4720434F4D500045EE
:10E5600045205245414459005457490053504D20CD
:10E570005245414459002A003EE344E349E34EE357
:10E5800053E358E35DE362E367E36CE373E37AE349
:10E5900081E3E8E3F5E302E4AAE3B6E3C3E3D0E30F
:10E5A000DDE385E392E39FE347E5C7E4D1E4DDE4FF
:10E5B00053E54FE55FE50DE419E426E433E440E478
:10E5C000E7E4F1E4FDE468E56CE54BE457E464E47A
:10E5D00071E47EE489E495E4A2E4AFE4BCE407E5F9
:10E5E00011E51DE527E531E53DE511241FBECFEF1F
:10E5F000D1E2DEBFCDBF12E0A0E0B2E001C01D92CB
:10E60000AC30B107E1F70E94CE740C94877F01E231
:10E610000EBF0FEF0DBF11241FBE0C94CE740C94CF
:10E62000007020E030E040ED57E005C0FA0131977E
:10E63000F1F72F5F3F4F28173907C0F308959C016A
:10E64000F901E60FF11D8491882369F08093CE00D3
:10E650008091C80086FFFCCF8091C80080648093C1
:10E66000C8006F5FEDCF08958DE08093CE0080915C
:10E67000C80086FFFCCF8091C80080648093C800EA
:10E680008AE08093CE008091C80086FFFCCF809105
:10E69000C80080648093C80008950E941F730E9480
:10E6A00034730895FC019081992359F09093CE0022
:10E6B0008091C80086FFFCCF8091C8008064809361
:10E6C000C8003196992379F70895282F982F9295AD
:10E6D0009F70892F805D8A3308F0895F8093CE0018
:10E6E0008091C80086FFFCCF8091C8008064809331
:10E6F000C800822F8F70982F905D9A3308F0995F31
:10E700009093CE008091C80086FFFCCF8091C80016
:10E7100080648093C80008959C01FB0185369105B3
:10E720001CF46330710594F0C90164E670E00E9446
:10E73000287F605D7F4F6093CE008091C80086FF88
:10E74000FCCF8091C80080648093C8002B303105D5
:10E7500014F43297B4F0C90164E670E00E94287F97
:10E760006AE070E00E94287F605D7F4F6093CE007A
:10E770008091C80086FFFCCF8091C80080648093A0
:10E78000C800C9016AE070E00E94287FC0968093AB
:10E79000CE008091C80086FFFCCF8091C8008064C5
:10E7A0008093C80008958770806480937C00809176
:10E7B0007A00806480937A0080917A0086FDFCCF95
:10E7C0002091780040917900942F80E030E0282B50
:10E7D000392BC90108951F93182F8FE792EE60E03F
:10E7E0000E941F731093CE008091C80086FFFCCF5B
:10E7F0008091C80080648093C8000E9434731F9188
:10E8000008952F923F924F925F926F927F928F92D4
:10E810009F92AF92BF92CF92DF92EF92FF920F93AF
:10E820001F93DF93CF93CDB7DEB762970FB6F894FF
:10E83000DEBF0FBECDBF382E622ECA01DB015C01E8
:10E840006D01772420E2222E2E010894411C511CD8
:10E8500089C081E0A81680E0B80681E0C80680E0A3
:10E86000D80628F0C601AA27BB270E946573BB27DC
:10E87000AD2D9C2D8B2D0E9465738A2D0E94657392
:10E880002092CE008091C80086FFFCCF8091C80006
:10E8900080648093C8009DE29093CE008091C80070
:10E8A00086FFFCCF8091C80080648093C8002092CE
:10E8B000CE008091C80086FFFCCF8091C8008064A4
:10E8C0008093C80019828601750188249924A1E0EB
:10E8D0003A1649F03A1620F0B2E03B1659F408C057
:10E8E000F701749007C0C7010E94717F782E02C0A3
:10E8F000D7017C90872D0E9465732092CE00809175
:10E90000C80086FFFCCF8091C80080648093C80057
:10E91000872D8052F401EF70F0708F3520F4E40DF4
:10E92000F51D708204C0E40DF51DBEE2B0830894AD
:10E93000E11CF11C011D111D0894811C911CE0E1DA
:10E940008E16910421F680E190E0A0E0B0E0A80EE0
:10E95000B91ECA1EDB1E198AC2010E9452730E9490
:10E9600034736A94662009F074CF62960FB6F894F7
:10E97000DEBF0FBECDBFCF91DF911F910F91FF90F2
:10E98000EF90DF90CF90BF90AF909F908F907F904F
:10E990006F905F904F903F902F9008952F923F92ED
:10E9A0004F925F926F927F928F929F92AF92BF929F
:10E9B000CF92DF92EF92FF920F931F93DF93CF934B
:10E9C000CDB7DEB7CD53D1400FB6F894DEBF0FBE42
:10E9D000CDBF269A2E9A8091C80082608093C8008D
:10E9E00080E18093CC0088E18093C9000000EE2490
:10E9F000FF248701B4E0AB2EB12CA0E49A2ECC24E6
:10EA0000DD2424C0C5010197F1F70894E11CF11C35
:10EA1000011D111D21E9E2162FE5F20621E0020792
:10EA200020E0120718F0F1E0CF2ED12CC801B70179
:10EA300028E53BE140E050E00E943B7F6115710515
:10EA40008105910519F485B1892585B98091C800A2
:10EA500087FD03C0C114D104A9F2A6014F5F5F4F27
:10EA6000C25EDE4F59834883CE51D140C25EDE4F35
:10EA700068817981CE51D1406130710511F00C94DB
:10EA80000A7FC05DDE4F19821882C053D14060E01A
:10EA9000C15DDE4F1882CF52D140AA24BB24C05E94
:10EAA000DE4F188219821A821B82C052D140CE5C7E
:10EAB000DE4F188219821A821B82C253D140E0E0D5
:10EAC000F0E085919491C45CDE4F99838883CC53A8
:10EAD000D1400C94057FC25EDE4FE881F981CE51B2
:10EAE000D140319709F52091CE00C25EDE4F1982E8
:10EAF0001882CE51D14022C02F5F3F4F4F4F5F4F02
:10EB00002130F2E13F07FAE74F07F0E05F0780F0BE
:10EB1000C45CDE4F08811981CC53D1400F5F1F4F79
:10EB200019F0EE27FF27099420E030E040E050E0A4
:10EB30008091C80087FFE0CF2091CE00213209F0FC
:10EB400062C60894A11CB11C33E0A316B10409F0FD
:10EB50005CC600E010E018C041E24093CE00809116
:10EB6000C80086FFFCCF8091C80080648093C800F5
:10EB70002F5F3F4F2931310579F70E9434730F5FC2
:10EB80001F4F0530110519F020E030E0E5CF10925D
:10EB900008021092090210920A0210920B021092BF
:10EBA00004021092050210920602109207021092BF
:10EBB00000021092010210920202109203028EEEE5
:10EBC00090EE60E00E944D738FE091EE60E00E9455
:10EBD0001F738091C80087FFFCCF9091CE009036C4
:10EBE00008F09F759032B8F09093CE008091C800E5
:10EBF00086FFFCCF8091C80080648093C80080E2CB
:10EC00008093CE008091C80086FFFCCF8091C80021
:10EC100080648093C800983409F4CEC19934B8F464
:10EC2000923409F450C1933458F4903319F190336D
:10EC300008F4E6C59F33A1F1903409F0E1C5BCC0EA
:10EC4000953409F467C1963409F0DAC58FC192355D
:10EC500009F422C2933538F49C3409F4ECC191359F
:10EC600009F0CEC50FC2963509F43CC2993509F0BA
:10EC7000C7C56AC484E892EE62E00E944D731092A8
:10EC800004021092050210920602109207021092DE
:10EC900008021092090210920A0210920B020AC195
:10ECA00088E992EE62E00E944D738EEE90EE60E095
:10ECB0000E944D7380E291EE60E00E941F7380EC31
:10ECC00091EE60E00E944D7380E391EE60E00E945F
:10ECD0001F7384EE90EE60E00E944D7380E491EE2D
:10ECE00060E00E941F7385E090E061E070E00E94A8
:10ECF0008C730E94347380E691EE60E00E941F7373
:10ED000082ED91EE60E00E944D7380E591EE60E04F
:10ED10000E941F738CEC91EE60E00E944D7380E7BF
:10ED200091EE60E00E941F738EE10E94657386E998
:10ED30000E94657388E00E9465730E94347380E8C6
:10ED400091EE60E00E941F7319E0E0E0F0E01093A4
:10ED5000570084910E9465730E94347380E991EE9C
:10ED600060E00E941F73E3E0F0E010935700E4912D
:10ED70008E2F0E9465730E94347380EA91EE60E0EA
:10ED80000E941F73E2E0F0E010935700E4918E2F91
:10ED90000E9465730E94347380EB91EE60E00E94E4
:10EDA0001F73E1E0F0E0109357001491812F0E944F
:10EDB00065730E94347308CF84EA92EE62E00E9489
:10EDC0004D7384E592EE60E00E944D730E943473AF
:10EDD00000E010E019C0C8016F2D0E94797FFF206C
:10EDE00031F482E592EE60E00E941F730BC0F09256
:10EDF000CE008091C80086FFFCCF8091C80080645F
:10EE00008093C8000F5F1F4FF801E251FF41F4905B
:10EE1000FAE2FF1621F022E000301207E1F60E942C
:10EE200034730E94347380E692EE60E00E944D736A
:10EE30000E943473CC24DD2400E010E01EC0C80121
:10EE40000E94717FF82E882331F482E592EE60E013
:10EE50000E941F730BC08093CE008091C80086FF74
:10EE6000FCCF8091C80080648093C800FE1419F024
:10EE70000894C11CD11C0F5F1F4FF801E251FF41E4
:10EE8000E4903AE2E31621F042E000301407B9F6CC
:10EE90000E9434730E9434738BE692EE60E00E940D
:10EEA0001F73C60161E070E00E948C730E9434738E
:10EEB0000E9434731092000210920102109202021A
:10EEC0001092030281CE82EB92EE62E00E944D73BB
:10EED000269A2E9A16C02E9880E090E0E0EDF7E09A
:10EEE0003197F1F7019684369105C1F72E9A80E0AB
:10EEF00090E0E0EDF7E03197F1F701968436910567
:10EF0000C1F78091C80087FFE6CF8091C80087FFD6
:10EF1000FCCF70C48EEB92EE62E00E944D73409184
:10EF2000000250910102609102027091030281E09F
:10EF300020E10E9401748091000290910102A09151
:10EF40000202B091030280509F4FAF4FBF4F80939A
:10EF5000000290930102A0930202B093030280503A
:10EF60009041A040B04008F42FCEA4CF8CEC92EE9C
:10EF700062E00E944D73409104025091050260913D
:10EF800006027091070280E020E10E9401748091E6
:10EF9000040290910502A0910602B09107028050F0
:10EFA0009F4FAF4FBF4F8093040290930502A093F1
:10EFB0000602B093070208CE89ED92EE62E00E944D
:10EFC0004D7384E892EE60E00E944D7388E992EE02
:10EFD00060E00E944D7384EA92EE60E00E944D73FF
:10EFE00082EB92EE60E00E944D738EEB92EE60E059
:10EFF0000E944D738CEC92EE60E00E944D7389ED9F
:10F0000092EE60E00E944D7380EE92EE60E00E940E
:10F010004D7381EF92EE60E00E944D738BE093EEB2
:10F0200060E00E944D7386E193EE60E00E944D73B4
:10F030008FE293EEC6CD80EE92EE62E00E944D73B9
:10F0400081E40E94EB7382E40E94EB7383E40E94EC
:10F05000EB7384E40E94EB7385E40E94EB7386E417
:10F060000E94EB7387E40E94EB7388E40E94EB73C9
:10F070008AE40E94EB738BE40E94EB738CE40E94A1
:10F08000EB73A2CD81EF92EE62E00E944D73992462
:10F090009394AA24BB241FC48BE093EE62E00E94E9
:10F0A0004D73409108025091090260910A027091DB
:10F0B0000B0282E020E10E9401748091080290918D
:10F0C0000902A0910A02B0910B0280509F4FAF4FEE
:10F0D000BF4F8093080290930902A0930A02B09355
:10F0E0000B0272CD86E193EE62E00E944D7384EED6
:10F0F00090EE60E00E944D7388ED91EE60E00E941A
:10F100004D7368E775EECC5DDE4F79836883C4523A
:10F11000D140C85DDE4F188219821A821B82C85204
:10F12000D140CA5DDE4F19821882C652D140C85DF7
:10F13000DE4F288039804A805B80C852D140569487
:10F14000479437942794CA5DDE4F88819981C652CF
:10F15000D1400196CA5DDE4F99838883C652D14063
:10F1600062E070E00E948C7390E29093CE008091F8
:10F17000C80086FFFCCF8091C80080648093C800DF
:10F18000ADE2A093CE008091C80086FFFCCF8091B5
:10F19000C80080648093C800B0E2B093CE00809134
:10F1A000C80086FFFCCF8091C80080648093C800AF
:10F1B000BB27A52D942D832D0E946573822D0E945F
:10F1C0006573E0E2E093CE008091C80086FFFCCF3B
:10F1D0008091C80080648093C800FDE3F093CE0066
:10F1E0008091C80086FFFCCF8091C8008064809326
:10F1F000C80000E20093CE008091C80086FFFCCFDB
:10F200008091C80080648093C800C85DDE4FE881AB
:10F21000F981C852D1401491C45DDE4F1883CC529D
:10F22000D140A12EBB24CC24DD2431968491682EBC
:10F2300077248824992431962491C35DDE4F288356
:10F24000CD52D14031963491C25DDE4F3883CE52DB
:10F25000D140182D072DF62CEE24EA0CFB1C0C1DBA
:10F260001D1D0E94657340E24093CE008091C8004E
:10F2700086FFFCCF8091C80080648093C800C45D85
:10F28000DE4F8881CC52D1400E94657350E250938A
:10F29000CE008091C80086FFFCCF8091C8008064BA
:10F2A0008093C800C25DDE4F8881CE52D1400E945B
:10F2B000657360E26093CE008091C80086FFFCCF4A
:10F2C0008091C80080648093C800C35DDE4F888150
:10F2D000CD52D1400E94657370E27093CE00809150
:10F2E000C80086FFFCCF8091C80080648093C8006E
:10F2F0008FEFE8168FEFF80680E0080780E0180728
:10F3000031F48DE092EE60E00E941F73D9C0D80105
:10F31000C7018070907CA070B0708050904CA0406D
:10F32000B040A1F52FEF3FE340E050E0E222F322AE
:10F330000423152357016801A20CB31CC41CD51C5F
:10F34000AA0CBB1CCC1CDD1C87E192EE60E00E9485
:10F350001F73BB27A12F902F8F2D0E9465738E2DB9
:10F360000E94657330E23093CE008091C80086FF22
:10F37000FCCF8091C80080648093C8004EE3409326
:10F38000CE008091C80086FFFCCF87C06EE07EEF84
:10F3900080E090E0E622F722082319237CE0E716BC
:10F3A00074E9F70670E0070770E0170709F088C0F6
:10F3B000C25DDE4F8881CE52D140E82EFF2400E0AE
:10F3C00010E0102F0F2DFE2CEE24C35DDE4F988130
:10F3D000CD52D140E90EF11C011D111DD601C50110
:10F3E00081709070A070B070DC0199278827E80EBA
:10F3F000F91E0A1F1B1F20EF30E040E050E0A22260
:10F40000B322C422D52291E1AA0CBB1CCC1CDD1C6A
:10F410009A95D1F7EA0CFB1C0C1D1D1D41E050E034
:10F4200060E070E0642275228622972285E1660CF6
:10F43000771C881C991C8A95D1F7E60CF71C081DCF
:10F44000191D57016801AA0CBB1CCC1CDD1C8EE1E8
:10F4500092EE60E00E941F73C801AA27BB270E949A
:10F460006573BB27A12F902F8F2D0E9465738E2D62
:10F470000E94657350E25093CE008091C80086FFD1
:10F48000FCCF8091C80080648093C8006EE36093D5
:10F49000CE008091C80086FFFCCF8091C8008064B8
:10F4A0008093C800C601AA27BB270E946573BB27AB
:10F4B000AD2D9C2D8B2D0E9465738A2D0E94657346
:10F4C00070E27093CE008091C80086FFFCCF8091DF
:10F4D000C80080648093C800CC5DDE4FE881F9816C
:10F4E000C452D1408591949160E00E941F730E94A4
:10F4F0003473CC5DDE4F88819981C452D14002962D
:10F50000CC5DDE4F99838883C452D140CA5DDE4F03
:10F51000A881B981C652D140D99709F455CBC85DAD
:10F52000DE4F088119812A813B81C852D1400C5F8E
:10F530001F4F2F4F3F4FC85DDE4F088319832A832B
:10F540003B83C852D140F3CD8FE293EE62E00E943C
:10F550004D7383E292EE60E00E941F738091C800B9
:10F5600087FFFCCF1091CE001F751093CE008091C5
:10F57000C80086FFFCCF8091C80080648093C800DB
:10F580000E943473812F81548A3108F036C11634B9
:10F5900009F495C0173490F4133409F44EC01434B0
:10F5A00030F41134F1F0123409F01DC130C01434BC
:10F5B00009F459C0153409F016C16BC01A3409F4A6
:10F5C000C4C01B3438F4173409F48FC0183409F060
:10F5D0000AC1A1C01B3409F4D2C01C3409F003C114
:10F5E000E8C08FEF81B90DC082B1809582B980E00B
:10F5F00090E0E0EDF7E03197F1F70196883C910556
:10F60000C1F78091C80087FFEFCF12B8EFC08FEF2E
:10F6100084B90DC085B1809585B980E090E0E0EDBA
:10F62000F7E03197F1F70196883C9105C1F7809199
:10F63000C80087FFEFCF15B8D9C08FEF87B90DC0CD
:10F6400088B1809588B980E090E0E0EDF7E03197EF
:10F65000F1F70196883C9105C1F78091C80087FFBA
:10F66000EFCF18B8C3C08FEF8AB90DC08BB18095AA
:10F670008BB980E090E0E0EDF7E03197F1F701968B
:10F68000883C9105C1F78091C80087FFEFCF1BB878
:10F69000ADC08FEF8DB90DC08EB180958EB980E071
:10F6A00090E0E0EDF7E03197F1F70196883C9105A5
:10F6B000C1F78091C80087FFEFCF1EB897C08FEFCA
:10F6C00080BB0DC081B3809581BB80E090E0E0ED10
:10F6D000F7E03197F1F70196883C9105C1F78091E9
:10F6E000C80087FFEFCF11BA81C08FEF83BB0DC079
:10F6F00084B3809584BB80E090E0E0EDF7E0319743
:10F70000F1F70196883C9105C1F78091C80087FF09
:10F71000EFCF14BA6BC08FEF809301010FC08091BF
:10F72000020180958093020180E090E0E0EDF7E037
:10F730003197F1F70196883C9105C1F78091C80097
:10F7400087FFEDCF1092020151C08FEF809304012B
:10F750000FC08091050180958093050180E090E0C5
:10F76000E0EDF7E03197F1F70196883C9105C1F79C
:10F770008091C80087FFEDCF1092050137C08FEF51
:10F78000809307010FC08091080180958093080144
:10F7900080E090E0E0EDF7E03197F1F70196883CEA
:10F7A0009105C1F78091C80087FFEDCF1092080145
:10F7B0001DC08FEF80930A010FC080910B018095CF
:10F7C00080930B0180E090E0E0EDF7E03197F1F7F6
:10F7D0000196883C9105C1F78091C80087FFEDCF65
:10F7E00010920B0103C08EE292EEEBC98091C8002B
:10F7F00087FFFCCF8091CE00E7C981E492EEE1C99A
:10F800008BE191EEDEC9AA24BB24933061F19430E0
:10F8100028F4913089F0923008F508C09530B1F1A4
:10F82000953040F1963009F052C04DC02B3109F0AF
:10F8300052C991E06BE14FC9213041F0C15DDE4F0B
:10F840001881CF52D140211709F0FFC26227C15D54
:10F85000DE4F2883CF52D14092E03DC9B22FA0E0C5
:10F86000622793E038C9822F90E0A82BB92B62273A
:10F8700094E031C92E3009F0E8C2622795E0C05DFE
:10F88000DE4F19821882C053D14025C9E1E0F0E073
:10F89000EC0FFD1FC05DDE4F48815981C053D14040
:10F8A000E40FF51F20834F5F5F4FC05DDE4F59832C
:10F8B0004883C053D14062274A175B0709F00BC940
:10F8C000DA0196E008C9261709F0BFC203C09730D5
:10F8D00009F001C999248981833109F4FCC084317C
:10F8E000C8F4863009F4C2C0873050F4823009F47D
:10F8F000F0C0833009F458C0813009F007C23EC01F
:10F90000813109F462C0823108F0A6C0803109F06B
:10F91000FDC1DFC0883109F472C0893150F48531EE
:10F9200009F4D9C0853108F472C1863109F0EEC1FD
:10F930006EC18A3109F457C08A3108F47CC08B311A
:10F9400009F446C08D3109F0E1C18D81803311F099
:10F9500090E00AC08F81882311F49EE105C08130B8
:10F9600011F098E001C096E91A821B828D818C8388
:10F970001D829E831F8227E030E0CCC11A8288E07E
:10F980008B8381E48C8386E58D8382E58E8389E495
:10F990008F8383E5888780E589878FE58A8782E37F
:10F9A0008B872BE030E0B6C18A81813941F0823902
:10F9B00041F0803911F48FE005C080E003C082E09F
:10F9C00001C08AE01A828B8344C09924939481C039
:10F9D0008D81882311F48EE12CC0813011F088E0F4
:10F9E00028C086E926C01A82E1E0F0E089E0809331
:10F9F000570084918B831C8224E030E08BC18B8183
:10FA0000803589F48C81883039F4E2E0F0E089E0D7
:10FA10008093570084910DC089E0E0E0F0E080938E
:10FA20005700849106C0E3E0F0E089E0809357003E
:10FA300084911A82DFCF8D81836C99E0E1E0F0E060
:10FA4000082E90935700E89507B600FCFDCF1A8268
:10FA50001B8223E030E05EC11A82CE5CDE4F18824A
:10FA600019821A821B82C253D14052C18A8190E00E
:10FA7000A0E0B0E0382F2227112700278B8190E0EB
:10FA8000A0E0B0E0DC0199278827082B192B2A2B4E
:10FA90003B2B8D8190E0A0E0B0E0082B192B2A2BA6
:10FAA0003B2B8C8190E0A0E0B0E0BA2FA92F982FDB
:10FAB0008827082B192B2A2B3B2B000F111F221FE5
:10FAC000331FC05EDE4F088319832A833B83C052F5
:10FAD000D1401A821DC19A812B81833149F0C05EC9
:10FAE000DE4F488159816A817B81C052D14085C0F7
:10FAF000CE5CDE4F488159816A817B81C253D140FF
:10FB0000403080EC580780E0680780E07807E0F438
:10FB100083E0FA0180935700E89507B600FCFDCF1B
:10FB2000CE5CDE4F488159816A817B81C253D140CE
:10FB300040505F4F6F4F7F4FCE5CDE4F48835983FD
:10FB40006A837B83C253D140C95CDE4F9883C7531D
:10FB5000D140CA5CDE4F1882C653D140A22FB0E01C
:10FB6000CA5CDE4F68817981C653D140A62BB72B82
:10FB7000C05EDE4F488159816A817B81C052D1408D
:10FB8000FBE0EF2EF12CEC0EFD1E31E0F701808141
:10FB9000218102E010E0E00EF11EC75CDE4F2883F9
:10FBA000C953D140C85CDE4F1882C853D14090E0A1
:10FBB000C85CDE4FE881F981C853D1408E2B9F2B62
:10FBC000FA010C0130935700E89511244E5F5F4F06
:10FBD0006F4F7F4F1297D1F685E0C05EDE4FE88110
:10FBE000F981C052D14080935700E89507B600FCD8
:10FBF000FDCF81E180935700E8951A82C05EDE4F09
:10FC0000488359836A837B83C052D14081C0FA8183
:10FC1000C55CDE4FF883CB53D140C65CDE4F188203
:10FC2000CA53D1408B81C82EDD24C65CDE4F0881CB
:10FC30001981CA53D140C02AD12A1A828981BE01B2
:10FC40006D5F7F4F843131F59601C05EDE4FE881F4
:10FC5000F981C052D14085919491DB018C9311962A
:10FC60009C936E5F7F4FC05EDE4F88819981AA8131
:10FC7000BB81C052D1400296A11DB11DC05EDE4FB6
:10FC800088839983AA83BB83C052D14022503040DD
:10FC9000E1F636C0C05EDE4F288139814A815B8142
:10FCA000C052D1400894C108D108760100E010E0AC
:10FCB0000894C11CD11C0894E11CF11C011D111DEC
:10FCC000E20EF31E041F151F21BDBB27A52F942F85
:10FCD000832F82BD2F5F3F4F4F4F5F4FF89A80B504
:10FCE000DB018D93BD012E153F054007510761F7DC
:10FCF000C05EDE4F288339834A835B83C052D14084
:10FD000096012D5F3F4FFB01108204C080EC8A8377
:10FD100022E030E08BE18093CE008091C80086FF26
:10FD2000FCCF8091C80080648093C800C15DDE4F25
:10FD3000F881CF52D140F093CE008091C80086FF69
:10FD4000FCCF8091C80080648093C800432F30931B
:10FD5000CE008091C80086FFFCCF8091C8008064EF
:10FD60008093C800922F2093CE008091C80086FF18
:10FD7000FCCF8091C80080648093C8008EE080939F
:10FD8000CE008091C80086FFFCCF8091C8008064BF
:10FD90008093C80065E1C15DDE4F0881CF52D1403C
:10FDA000602769276427FE01319610C090819093E7
:10FDB000CE008091C80086FFFCCF31968091C800AC
:10FDC00080648093C8006927215030402115310597
:10FDD00069F76093CE008091C80086FFFCCF8091C8
:10FDE000C80080648093C80085B190E4892785B9F4
:10FDF000992081F4C15DDE4F1881CF52D1401F5F41
:10FE0000C15DDE4F1883CF52D14090E0A0E0B0E05A
:10FE10000C946B7526982E9880E090E020ED37E0EA
:10FE2000F9013197F1F7019684369105C9F7000081
:10FE30008091C8008D7F8093C80081E18093570036
:10FE4000E895EE27FF270994FFCF90E00C946B759F
:10FE500097FB092E07260AD077FD04D02ED006D0B6
:10FE600000201AF4709561957F4F0895F6F79095EC
:10FE700081959F4F0895A1E21A2EAA1BBB1BFD017D
:10FE80000DC0AA1FBB1FEE1FFF1FA217B307E40779
:10FE9000F50720F0A21BB30BE40BF50B661F771FD1
:10FEA000881F991F1A9469F76095709580959095B1
:10FEB0009B01AC01BD01CF010895AA1BBB1B51E101
:10FEC00007C0AA1FBB1FA617B70710F0A61BB70BCA
:10FED000881F991F5A95A9F780959095BC01CD016F
:10FEE0000895F999FECF92BD81BDF89A992780B502
:10FEF0000895262FF999FECF1FBA92BD81BD20BD6E
:10FF00000FB6F894FA9AF99A0FBE01960895F894EC
:02FF1000FFCF21
:040000030000E00019
:00000001FF
