:103800000C942E1C0C94401C0C94401C0C94401CDA
:103810000C94401C0C94401C0C94401C0C94401CB8
:103820000C94401C0C94401C0C94401C0C94401CA8
:103830000C94401C0C94401C0C94401C0C94401C98
:103840000C94401C0C94401C0C94401C0C94401C88
:103850000C94401C0C94401C0C94401C11241FBE62
:10386000CFEFD4E0DEBFCDBF0E94501C0C94F61FFA
:1038700004E00EBF0FEF0DBF11241FBE0C94501CAF
:103880000C94001C20E030E048EE53E005C0FA0143
:103890003197F1F72F5F3F4F28173907C0F308958D
:1038A0002F923F924F925F926F927F928F929F9250
:1038B000AF92BF92CF92DF92EF92FF920F931F933E
:1038C000DF93CF93CDB7DEB7C152D1400FB6F89496
:1038D000DEBF0FBECDBF04E00EBF0FEF0DBF259AB8
:1038E0002D9A8091C00082608093C00080E1809317
:1038F000C40088E18093C100000083E78093C60084
:103900008091C00086FFFCCF8091C00080648093CE
:10391000C00084E78093C6008091C00086FFFCCF82
:103920008091C00080648093C0008BE68093C600C5
:103930008091C00086FFFCCF8091C000806480939E
:10394000C00086E78093C6008091C00086FFFCCF50
:103950008091C00080648093C00082E38093C600A1
:103960008091C00086FFFCCF8091C000806480936E
:10397000C0008DE08093C6008091C00086FFFCCF20
:103980008091C00080648093C0008AE08093C6006C
:103990008091C00086FFFCCF8091C000806480933E
:1039A000C00080E090E028EE33E0F9013197F1F7B4
:1039B000019684369105C9F7EE24FF24870132E091
:1039C000A32EB12C20E2922ECC24DD2424C0C501EC
:1039D0000197F1F70894E11CF11C011D111D21E96B
:1039E000E2162FE5F20621E0020720E0120718F0A8
:1039F00091E0C92ED12CC801B70123EE3DE040E093
:103A000050E00E94D41F611571058105910519F4DC
:103A100085B1892585B98091C00087FD03C0C11497
:103A2000D104A9F2C6010196C25EDE4F9983888354
:103A3000CE51D140C25EDE4FE881F981CE51D140F6
:103A4000319709F065C2CC24DD2410E000E0EE24BB
:103A5000FF24AA24BB24F60125913491C05EDE4FD9
:103A600039832883C052D1404FC2C25EDE4FE88105
:103A7000F981CE51D140319709F53091C600C25E2F
:103A8000DE4F19821882CE51D14022C04F5F5F4F66
:103A90006F4F7F4F4130F9E05F07FDE36F07F0E0C4
:103AA0007F0780F0C05EDE4F28813981C052D1404F
:103AB0002F5F3F4F19F0EE27FF27099440E050E0B9
:103AC00060E070E08091C00087FFE0CF3091C600D9
:103AD000933011F1943028F4913081F09230B8F4A1
:103AE00007C0953041F19530F0F09630D1F535C0F2
:103AF0003B3109F0BACF91E01BE1B7CF313019F07B
:103B0000301709F04FC21327032F92E0AECFB32F27
:103B1000A0E0132793E0A9CF832F90E0A82BB92B27
:103B2000132794E0A2CF3E3009F03CC2132795E062
:103B3000CC24DD249ACFE1E0F0E0EC0FFD1FEC0D8A
:103B4000FD1D30830894C11CD11C1327CA16DB0647
:103B500009F08BCFD60196E088CF311709F022C249
:103B600003C0973009F081CF9981933109F4D1C016
:103B70009431C0F4963009F4C1C0973048F49230C3
:103B800069F1933009F45BC0913009F051C141C033
:103B9000913109F465C0923108F0ACC0903109F060
:103BA00047C11CC0983109F474C0993150F4953163
:103BB00009F4AFC0953108F403C1963109F038C15A
:103BC000FFC09A3109F45CC09A3108F482C09B317D
:103BD00009F44BC09D3109F02BC102C030E041C057
:103BE0008D81803311F090E00AC08F81882311F419
:103BF0009EE105C0813011F095E001C094E91A8280
:103C00001B828D818C831D829E831F8247E050E042
:103C100013C11A8288E08B8381E48C8386E58D83CF
:103C200082E58E8389E48F8383E5888780E58987B1
:103C30008FE58A8782E38B874BE050E0FDC08A8165
:103C4000813941F0823941F0803911F48FE005C0AB
:103C500080E003C082E001C08AE01A828B8347C003
:103C600031E01A8242E050E0E8C08D81882311F4EF
:103C70008EE129C0813011F085E025C084E923C0A0
:103C80001A82E1E0F0E099E090935700E491EB8331
:103C90001CC08B81803589F48C81883039F429E00F
:103CA000E2E0F0E02093570084910DC029E0E0E0CD
:103CB000F0E020935700849106C0E3E0F0E039E0A3
:103CC0003093570084911A828B831C8244E050E029
:103CD000B3C08D81836C99E0E1E0F0E0082E909311
:103CE0005700E89507B600FCFDCF1A821B8243E01F
:103CF00050E0A2C01A82AA24BB249CC07C80662407
:103D00008D81E82EFF24E628F728EE0CFF1C1A828E
:103D100091C05A8044248B81682F70E064297529F2
:103D2000933109F037C0E0E0AE16E0E3BE0660F480
:103D300023E0F50120935700E89507B600FCFDCF7E
:103D400080E890E0A80EB91EA701DE011B968C91B9
:103D500011962C9111971296922E882490E0882922
:103D6000992921E0FA010C0120935700E8951124CC
:103D70004E5F5F4F6250704051F725E0F70120938E
:103D80005700E89507B600FCFDCF31E130935700AE
:103D9000E89513C0A701FB01DE011B9641BD52BD92
:103DA0004F5F5F4F8D9180BDFA9AF99AF999FECFD6
:103DB0003197A1F7A701460F571F1A827A013AC01F
:103DC0003A8022248B81A82FB0E0A229B3291A823D
:103DD00089818431A1F4BD019E012D5F3F4FF70120
:103DE00085919491F901808391832E5F3F4F82E00A
:103DF00090E0E80EF91E6250704089F713C0A701E9
:103E0000BD019E012D5F3F4F41BD52BD4F5F5F4FD2
:103E1000F89A80B5F90181939F0161507040A1F734
:103E2000EA0EFB1EAD014D5F5F4FF901108204C029
:103E3000F0ECFA8342E050E030E02BE12093C60042
:103E40008091C00086FFFCCF8091C0008064809389
:103E5000C0000093C6008091C00086FFFCCF809117
:103E6000C00080648093C000652F5093C60080918D
:103E7000C00086FFFCCF8091C00080648093C000AA
:103E8000942F4093C6008091C00086FFFCCF8091A4
:103E9000C00080648093C0008EE08093C600809153
:103EA000C00086FFFCCF8091C00080648093C0007A
:103EB00015E1102719271627FE01319610C09081B1
:103EC0009093C6008091C00086FFFCCF3196809110
:103ED000C00080648093C0001927415050404115B4
:103EE000510569F71093C6008091C00086FFFCCF92
:103EF0008091C00080648093C00085B190E28927E2
:103F000085B9332329F40F5F90E0A0E0B0E0ADCD98
:103F10008AE68093C6008091C00086FFFCCF809126
:103F2000C00080648093C0008DE08093C6008091C3
:103F3000C00086FFFCCF8091C00080648093C000E9
:103F40008AE08093C6008091C00086FFFCCF8091FC
:103F5000C00080648093C00080E090E028EE33E0F1
:103F6000F9013197F1F7019684369105C9F7259843
:103F70002D9880E090E028EE33E0F9013197F1F7D9
:103F8000019684369105C9F700008091C0008D7FAD
:103F90008093C00081E180935700E895EE27FF27CA
:103FA0000994FFCF90E061CDA1E21A2EAA1BBB1BA2
:103FB000FD010DC0AA1FBB1FEE1FFF1FA217B307F5
:103FC000E407F50720F0A21BB30BE40BF50B661F0B
:103FD000771F881F991F1A9469F7609570958095CF
:103FE00090959B01AC01BD01CF010895F894FFCFDE
:0400000300003800C1
:00000001FF
