:020000021000EC
:10E000000C944CF00C946BF00C946BF00C946BF043
:10E010000C946BF00C946BF00C946BF00C946BF014
:10E020000C946BF00C946BF00C946BF00C946BF004
:10E030000C946BF00C946BF00C946BF00C946BF0F4
:10E040000C946BF00C946BF00C946BF00C946BF0E4
:10E050000C946BF00C946BF00C946BF00C946BF0D4
:10E060000C946BF00C946BF00C946BF00C946BF0C4
:10E070000C946BF00C946BF00C946BF00C946BF0B4
:10E080000C946BF00C946BF00C946BF00C946BF0A4
:10E090000C946BF00C946BF011241FBECFEFD0E208
:10E0A000DEBFCDBF11E0A0E0B1E0EEEBF9EE01E0A4
:10E0B0000BBF02C007900D92A030B107D9F70E94A4
:10E0C0007BF00C94DDF400E20EBF0FEF0DBF1124C6
:10E0D0001FBE0C947BF00C9400F020E030E048EE82
:10E0E00053E005C0FA013197F1F72F5F3F4F281732
:10E0F0003907C0F308952F923F924F925F926F922B
:10E100007F928F929F92AF92BF92CF92DF92EF92C7
:10E11000FF920F931F93DF93CF93CDB7DEB7C85213
:10E12000D1400FB6F894DEBF0FBECDBF00E20EBFE8
:10E130000FEF0DBF279A2F9A8091C80082608093BD
:10E14000C80088E08093CC0088E18093C90000007B
:10E1500083E78093CE008091C80086FFFCCF80913A
:10E16000C80080648093C80084E78093CE008091CB
:10E17000C80086FFFCCF8091C80080648093C800EF
:10E180008BE68093CE008091C80086FFFCCF809103
:10E19000C80080648093C80086E78093CE00809199
:10E1A000C80086FFFCCF8091C80080648093C800BF
:10E1B00082E38093CE008091C80086FFFCCF8091DF
:10E1C000C80080648093C8008DE08093CE00809169
:10E1D000C80086FFFCCF8091C80080648093C8008F
:10E1E0008AE08093CE008091C80086FFFCCF8091AA
:10E1F000C80080648093C80080E090E028EE33E09F
:10E20000F9013197F1F7019684369105C9F7EE24AB
:10E21000FF24870142E0A42EB12CCC24DD2424C0AD
:10E22000C5010197F1F70894E11CF11C011D111DB6
:10E2300021E9E2162FE5F20621E0020720E01207AD
:10E2400018F031E0C32ED12CC801B70123EE3DE018
:10E2500040E050E00E94BBF4611571058105910515
:10E2600019F485B1805885B98091C80087FD03C035
:10E27000C114D104A9F2A6014F5F5F4FC25EDE4F09
:10E2800059834883CE51D140C25EDE4F8881998147
:10E29000CE51D140019709F022C322243324A0E0BB
:10E2A000C05EDE4F1882C052D140882499245401A8
:10E2B000442455243201ABBEF40127913691C95D47
:10E2C000DE4F39832883C752D14005C3C25EDE4F7B
:10E2D00048815981CE51D1404130510509F53091E5
:10E2E000CE00C25EDE4F19821882CE51D14022C0CC
:10E2F0004F5F5F4F6F4F7F4F413089E058078DE38D
:10E30000680780E0780780F0C95DDE4FE881F98119
:10E31000C752D140EF5FFF4F19F0EE27FF27099456
:10E3200040E050E060E070E08091C80087FFE0CFFF
:10E330003091CE00933061F1943028F4913089F01F
:10E34000923008F508C0953091F1953040F1963043
:10E3500009F043C03EC03B3109F0B8CF91E0ABE1DA
:10E36000B5CF313041F0C05EDE4F4881C052D14060
:10E37000341709F0FEC2A327C05EDE4F3883C052B7
:10E38000D14092E0A3CF132F00E0A32793E09ECFCC
:10E39000832F90E0082B192BA32794E097CF3E30D2
:10E3A00009F0E7C2A32795E0222433248FCFE1E0D0
:10E3B000F0E0EC0FFD1FE20DF31D30830894211CEB
:10E3C000311CA3272016310609F080CF810196E089
:10E3D0007DCF3A1709F0CDC203C0973009F076CF50
:10E3E0009981933109F4F4C09431C0F4963009F462
:10E3F000C2C0973048F4923069F1933009F45BC0A1
:10E40000913009F0E9C141C0913109F465C0923100
:10E4100008F0ACC0903109F0DFC11CC0983109F49C
:10E4200074C0993150F4953109F4D2C0953108F493
:10E4300067C1963109F0D0C163C19A3109F45CC05B
:10E440009A3108F482C09B3109F44BC09D3109F028
:10E45000C3C102C090E041C08D81803311F090E0D3
:10E460000AC08F81882311F49EE105C0813011F02C
:10E4700092E801C097E91A821B828D818C831D82EC
:10E480009E831F8247E050E0ABC11A8288E08B83F5
:10E4900081E48C8386E58D8382E58E8389E48F8396
:10E4A00083E5888780E589878FE58A8782E38B8784
:10E4B0004BE050E095C18A81813941F0823941F0C9
:10E4C000803911F48FE005C080E003C082E001C014
:10E4D0008AE01A828B8347C091E01A8242E050E0C2
:10E4E00080C18D81882311F48EE129C0813011F023
:10E4F00082E825C087E923C01A82E1E0F0E059E014
:10E5000050935700E491EB831CC08B81803589F4D4
:10E510008C81883039F429E0E2E0F0E02093570064
:10E5200084910DC029E0E0E0F0E020935700849151
:10E5300006C0E3E0F0E039E03093570084911A829E
:10E540008B831C8244E050E04BC18D81836C49E099
:10E55000E1E0F0E0082E40935700E89507B600FC94
:10E56000FDCF1A821B8243E050E03AC11A82442454
:10E570005524320133C18A8190E0A0E0B0E0B82E8A
:10E58000AA24992488248B8190E0A0E0B0E0DC01EB
:10E5900099278827882A992AAA2ABB2A8D8190E060
:10E5A000A0E0B0E0882A992AAA2ABB2A8C8190E0B0
:10E5B000A0E0B0E0BA2FA92F982F8827882A992A9F
:10E5C000AA2ABB2A880C991CAA1CBB1C1A8206C149
:10E5D0005A81CE5DDE4F5883C252D140CF5DDE4FAF
:10E5E0001882C152D1408B81A82FB0E0CF5DDE4FA1
:10E5F000E881F981C152D140AE2BBF2B933109F094
:10E6000056C0F0E04F16F0EC5F06F1E06F06F0E068
:10E610007F0690F423E0F20160925B0020935700A4
:10E62000E89507B600FCFDCF20E031E040E050E087
:10E63000420E531E641E751EB501A4018E01055FB6
:10E640001F4FF801808121810E5F1F4FCC5DDE4F8F
:10E650002883C452D140CD5DDE4F1882C352D140D1
:10E6600090E0CD5DDE4F28813981C352D140822BAD
:10E67000932B31E00C01FA0160935B00309357005B
:10E68000E89511244E5F5F4F6F4F7F4F1297C9F689
:10E6900085E0F401A0925B0080935700E89507B6EF
:10E6A00000FCFDCF91E190935700E89525C0B5019E
:10E6B000A401FE013B9611978D0120E030E00F5F31
:10E6C0001F4F2F4F3F4F080D191D2A1D3B1D41BDE8
:10E6D000BB27A72F962F852F82BD4F5F5F4F6F4FB0
:10E6E0007F4F819180BDFA9AF99AF999FECF401730
:10E6F00051076207730759F71A824A015B016EC01E
:10E70000AA81CA5DDE4FA883C652D140CB5DDE4FE1
:10E710001882C552D1408B81C82EDD24CB5DDE4FDF
:10E72000E881F981C552D140CE2ADF2A1A82898137
:10E730008431F1F4A60123E0E22EF12CEC0EFD1E53
:10E74000ABBEF40187919691D7018C9311969C935F
:10E75000E2E0F0E0EE0EFF1E82E090E0A0E0B0E02C
:10E76000880E991EAA1EBB1E4250504049F72EC06B
:10E77000B501A40193E0E92EF12CEC0EFD1E0894E6
:10E78000C108D108860120E030E00894C11CD11CEA
:10E790000F5F1F4F2F4F3F4F080D191D2A1D3B1DA7
:10E7A00041BDBB27A72F962F852F82BD4F5F5F4F9F
:10E7B0006F4F7F4FF89A80B5D7018D937D01401739
:10E7C00051076207730761F74A015B01A6014D5FBC
:10E7D0005F4FF701108204C0F0ECFA8342E050E092
:10E7E00090E02BE12093CE008091C80086FFFCCF03
:10E7F0008091C80080648093C800C05EDE4F38817D
:10E80000C052D1403093CE008091C80086FFFCCF2B
:10E810008091C80080648093C800652F5093CE001B
:10E820008091C80086FFFCCF8091C80080648093EF
:10E83000C800342F4093CE008091C80086FFFCCFE3
:10E840008091C80080648093C8008EE08093CE00E1
:10E850008091C80086FFFCCF8091C80080648093BF
:10E86000C800A5E1C05EDE4F8881C052D140A82714
:10E87000A327A627FE01319610C030813093CE0029
:10E880008091C80086FFFCCF31968091C8008064DB
:10E890008093C800A327415050404115510569F7A6
:10E8A000A093CE008091C80086FFFCCF8091C80065
:10E8B00080648093C80085B1805885B9992379F424
:10E8C000C05EDE4F9881C052D1409F5FC05EDE4F78
:10E8D0009883C052D14090E000E010E0F7CC8AE687
:10E8E0008093CE008091C80086FFFCCF8091C80045
:10E8F00080648093C8008DE08093CE008091C80032
:10E9000086FFFCCF8091C80080648093C8008AE0B5
:10E910008093CE008091C80086FFFCCF8091C80014
:10E9200080648093C80080E090E028EE33E0F90135
:10E930003197F1F7019684369105C9F727982F98FA
:10E9400080E090E028EE33E0F9013197F1F701968D
:10E9500084369105C9F700008091C8008D7F8093AF
:10E96000C80081E180935700E895EE27FF270994BE
:10E97000FFCF90E0ABCCA1E21A2EAA1BBB1BFD017E
:10E980000DC0AA1FBB1FEE1FFF1FA217B307E4078E
:10E99000F50720F0A21BB30BE40BF50B661F771FE6
:10E9A000881F991F1A9469F76095709580959095C6
:0EE9B0009B01AC01BD01CF010895F894FFCF8B
:040000031000E00009
:00000001FF
