:020000023000CC
:10E000000D94F6F20D941FF30D941FF30D941FF36E
:10E010000D941FF30D941FF30D941FF30D941FF334
:10E020000D941FF30D941FF30D941FF30D941FF324
:10E030000D941FF30D941FF30D941FF30D941FF314
:10E040000D941FF30D941FF30D941FF30D941FF304
:10E050000D941FF30D941FF30D941FF30D941FF3F4
:10E060000D941FF30D941FF30D941FF30D941FF3E4
:10E070000D941FF30D941FF30D941FF30D941FF3D4
:10E080000D941FF30D941FF30D941FF30D941FF3C4
:10E090000D941FF30D941FF30D941FF30D941FF3B4
:10E0A0000D941FF30D941FF30D941FF30D941FF3A4
:10E0B0000D941FF30D941FF30D941FF30D941FF394
:10E0C0000D941FF30D941FF30D941FF30D941FF384
:10E0D0000D941FF30D941FF30D941FF30D941FF374
:10E0E0000D941FF341546D65676132353630004140
:10E0F000726475696E6F206578706C6F72657220DE
:10E1000073746B3530305632206279204D4C530099
:10E11000426F6F746C6F616465723E004875683F52
:10E1200000436F6D70696C6564206F6E20203D2028
:10E1300000435055205479706520202020203D2038
:10E14000005F5F4156525F415243485F5F203D2070
:10E1500000415652204C69624320566572203D2092
:10E16000004743432056657273696F6E20203D203F
:10E1700000435055207369676E61747572653D2068
:10E18000004C6F77206675736520202020203D208D
:10E1900000486967682066757365202020203D204F
:10E1A00000457874206675736520202020203D206E
:10E1B000004C6F636B2066757365202020203D2026
:10E1C00000536570203132203230313000312E362C
:10E1D0002E3700342E332E33005623202020414486
:10E1E00044522020206F7020636F6465202020201F
:10E1F00020696E737472756374696F6E20616464F4
:10E2000072202020496E74657272757074006E6F92
:10E2100020766563746F7200726A6D702020006AE8
:10E220006D7020005768617420706F72743A0050EE
:10E230006F7274206E6F7420737570706F72746576
:10E2400064004D7573742062652061206C65747480
:10E2500065720020005772697474696E67204545C5
:10E260000052656164696E6720454500656570729E
:10E270006F6D206572726F7220636F756E743D00F2
:10E28000504F525400303D5A65726F206164647281
:10E290006573732063747273003F3D435055207360
:10E2A0007461747300403D454550524F4D20746574
:10E2B000737400423D426C696E6B204C45440045CE
:10E2C0003D44756D7020454550524F4D00463D44CC
:10E2D000756D7020464C41534800483D48656C7050
:10E2E000004C3D4C69737420492F4F20506F72745D
:10E2F0007300513D517569742026206A756D702038
:10E30000746F20757365722070676D00523D44759F
:10E310006D702052414D00563D73686F7720696ED5
:10E320007465727275707420566563746F727300D1
:10E33000593D506F727420626C696E6B002A0052F6
:10E340004553455400494E543000494E543100491C
:10E350004E543200494E543300494E543400494E15
:10E36000543500494E543600494E54370050434905
:10E370004E5430005043494E5431005043494E549E
:10E3800032005744540054494D45523020434F4DBC
:10E3900050410054494D45523020434F4D504200AA
:10E3A00054494D455230204F56460054494D455230
:10E3B0003120434150540054494D45523120434F80
:10E3C0004D50410054494D45523120434F4D50422C
:10E3D0000054494D45523120434F4D50430054495C
:10E3E0004D455231204F56460054494D455232203A
:10E3F000434F4D50410054494D45523220434F4DFB
:10E4000050420054494D455232204F56460054491F
:10E410004D45523320434150540054494D455233E9
:10E4200020434F4D50410054494D45523320434FF6
:10E430004D50420054494D45523320434F4D5043B7
:10E440000054494D455233204F56460054494D45DE
:10E45000523420434150540054494D4552342043D6
:10E460004F4D50410054494D45523420434F4D507B
:10E47000420054494D45523420434F4D50430054BF
:10E48000494D455234204F56460054494D4552356A
:10E4900020434150540054494D45523520434F4D7F
:10E4A00050410054494D45523520434F4D50420094
:10E4B00054494D45523520434F4D50430054494D2A
:10E4C000455235204F564600555341525430205244
:10E4D000580055534152543020554452450055532D
:10E4E0004152543020545800555341525431205217
:10E4F000580055534152543120554452450055530C
:10E5000041525431205458005553415254322052F4
:10E5100058005553415254322055445245005553EA
:10E5200041525432205458005553415254332052D2
:10E5300058005553415254332055445245005553C9
:10E5400041525433205458005350492053544300EF
:10E5500041444300414E414C4F4720434F4D5000F2
:10E560004545205245414459005457490053504DA8
:10E57000205245414459002A003FE345E34AE34F16
:10E58000E354E359E35EE363E368E36DE374E37B41
:10E59000E382E3E9E3F6E303E4ABE3B7E3C4E3D107
:10E5A000E3DEE386E393E3A0E348E5C8E4D2E4DEF8
:10E5B000E454E550E560E50EE41AE427E434E44170
:10E5C000E4E8E4F2E4FEE469E56DE54CE458E46572
:10E5D000E472E47FE48AE496E4A3E4B0E4BDE408F2
:10E5E000E512E51EE528E532E53EE50011241FBEF3
:10E5F000CFEFD1E2DEBFCDBF01E00CBF12E0A0E063
:10E60000B2E0E4EEFFEF03E00BBF02C007900D9213
:10E61000A030B107D9F712E0A0E0B2E001C01D922E
:10E62000AC30B107E1F70F94FBF40D94F0FF01E279
:10E630000EBF0FEF0DBF11241FBE0D94FBF40D9400
:10E6400000F020E030E048EE53E005C0FA013197D9
:10E65000F1F72F5F3F4F28173907C0F308959C014A
:10E66000442737FD4095542FDA01C901860F911DCB
:10E67000A11DB11DABBFFC018791882369F0809378
:10E68000C6008091C00086FFFCCF8091C0008064EE
:10E690008093C0006F5FE8CF08958DE08093C6003F
:10E6A0008091C00086FFFCCF8091C0008064809381
:10E6B000C0008AE08093C6008091C00086FFFCCF36
:10E6C0008091C00080648093C00008950F942FF360
:10E6D0000F944DF30895FC019081992359F0909384
:10E6E000C6008091C00086FFFCCF8091C00080648E
:10E6F0008093C0003196992379F70895282F982F99
:10E7000092959F70892F805D8A3308F0895F80938E
:10E71000C6008091C00086FFFCCF8091C00080645D
:10E720008093C000822F8F70982F905D9A3308F0ED
:10E73000995F9093C6008091C00086FFFCCF8091C6
:10E74000C00080648093C00008959C01FB01853661
:10E7500091051CF46330710594F0C90164E670E022
:10E760000F9491FF605D7F4F6093C6008091C00061
:10E7700086FFFCCF8091C00080648093C0002B3066
:10E78000310514F43297B4F0C90164E670E00F94D7
:10E7900091FF6AE070E00F9491FF605D7F4F60939E
:10E7A000C6008091C00086FFFCCF8091C0008064CD
:10E7B0008093C000C9016AE070E00F9491FFC09699
:10E7C0008093C6008091C00086FFFCCF8091C0007E
:10E7D00080648093C0000895282F277020642093C0
:10E7E0007C0020917B0086958695869590E08170CF
:10E7F000907033E0880F991F3A95E1F7277F282B17
:10E8000020937B0080917A00806480937A008091CD
:10E810007A0086FDFCCF2091780040917900942FFA
:10E8200080E030E0282B392BC90108951F93182F61
:10E8300080E892EE60E00F942FF31093C600809171
:10E84000C00086FFFCCF8091C00080648093C00030
:10E850000F944DF31F9108952F923F924F925F9224
:10E860006F927F928F929F92AF92BF92CF92DF92E0
:10E87000EF92FF920F931F93DF93CF93CDB7DEB745
:10E8800062970FB6F894DEBF0FBECDBF382E622E52
:10E89000CA01DB015C016D01772460E2262E2E01A6
:10E8A0000894411C511C8BC081E0A81680E0B8067A
:10E8B00081E0C80680E0D80628F0C601AA27BB2759
:10E8C0000F947EF3BB27AD2D9C2D8B2D0F947EF3E3
:10E8D0008A2D0F947EF32092C6008091C00086FF9F
:10E8E000FCCF8091C00080648093C0009DE2909333
:10E8F000C6008091C00086FFFCCF8091C00080647C
:10E900008093C0002092C6008091C00086FFFCCF9B
:10E910008091C00080648093C000198286017501D7
:10E9200088249924A1E03A1651F03A1620F0B2E07A
:10E930003B1661F409C00BBFF701779007C0C70110
:10E940000F94DAFF782E02C0F7017080872D0F94A4
:10E950007EF32092C6008091C00086FFFCCF80919C
:10E96000C00080648093C000872D8052F401EF7056
:10E97000F0708F3520F4E40DF51D708204C0E40DB5
:10E98000F51D8EE280830894E11CF11C011D111D10
:10E990000894811C911C90E18916910409F0C2CF62
:10E9A00080E190E0A0E0B0E0A80EB91ECA1EDB1E18
:10E9B000198AC2010F946BF30F944DF36A94662089
:10E9C00009F072CF62960FB6F894DEBF0FBECDBFCE
:10E9D000CF91DF911F910F91FF90EF90DF90CF903B
:10E9E000BF90AF909F908F907F906F905F904F906F
:10E9F0003F902F9008952F923F924F925F926F9287
:10EA00007F928F929F92AF92BF92CF92DF92EF92BE
:10EA1000FF920F931F93DF93CF93CDB7DEB7CD5304
:10EA2000D1400FB6F894DEBF0FBECDBF6F9A779A74
:10EA30008091C00082608093C00089E18093C4000F
:10EA400088E18093C1000000EE24FF248701B2E03A
:10EA5000AB2EB12CCC24DD2424C0C5010197F1F7E5
:10EA60000894E11CF11C011D111D21E9E2162FE59E
:10EA7000F20621E0020720E0120718F0A1E0CA2EFA
:10EA8000D12CC801B70128E53BE140E050E00F94EC
:10EA9000A4FF611571058105910519F48EB18058A7
:10EAA0008EB98091C00087FD03C0C114D104A9F2C2
:10EAB000A6014F5F5F4FC25EDE4F59834883CE5140
:10EAC000D140C25EDE4F68817981CE51D140613044
:10EAD000710511F00D9473FFC05DDE4F198218822D
:10EAE000C053D14060E0C15DDE4F1882CF52D140AB
:10EAF000AA24BB24C05EDE4F188219821A821B82B0
:10EB0000C052D140CE5CDE4F188219821A821B821D
:10EB1000C253D14080E090E0A0E0B0E0ABBFFC0188
:10EB2000A791B691C45CDE4FB983A883CC53D14082
:10EB30000D946EFFC25EDE4FE881F981CE51D14067
:10EB4000319709F52091C600C25EDE4F1982188206
:10EB5000CE51D14022C02F5F3F4F4F4F5F4F2130EA
:10EB6000F9E03F07FDE34F07F0E05F0780F0C45C8A
:10EB7000DE4F08811981CC53D1400F5F1F4F19F030
:10EB8000EE27FF27099420E030E040E050E080913C
:10EB9000C00087FFE0CF2091C600213209F099C65E
:10EBA0000894A11CB11C33E0A316B10409F093C66C
:10EBB00000E010E018C041E24093C6008091C00020
:10EBC00086FFFCCF8091C00080648093C0002F5FDF
:10EBD0003F4F2931310579F70F944DF30F5F1F4FE8
:10EBE0000530110519F020E030E0E5CF1092080261
:10EBF0001092090210920A0210920B021092040263
:10EC00001092050210920602109207021092000262
:10EC10001092010210920202109203028FEE90EE07
:10EC200060E00F9466F380E191EE60E00F942FF3C3
:10EC30008091C00087FFFCCF9091C600903608F00D
:10EC40009F759F3581F39032B8F09093C600809104
:10EC5000C00086FFFCCF8091C00080648093C0001C
:10EC600080E28093C6008091C00086FFFCCF809137
:10EC7000C00080648093C000983409F4DEC19934E8
:10EC8000B8F4923409F460C1933458F4903331F1FC
:10EC9000903308F41BC69F33B9F1903409F016C6BF
:10ECA000C0C0953409F477C1963409F00FC69FC1EE
:10ECB000923509F432C2933538F49C3409F4FCC11E
:10ECC000913509F003C61FC2993509F4A3C49F35D5
:10ECD00009F4A9CF963509F0F9C545C285E892EE49
:10ECE00062E00F9466F310920402109205021092F3
:10ECF0000602109207021092080210920902109266
:10ED00000A0210920B0217C189E992EE62E00F9499
:10ED100066F38FEE90EE60E00F9466F381E291EE81
:10ED200060E00F942FF381EC91EE60E00F9466F3B6
:10ED300081E391EE60E00F942FF384EE90EE60E0BB
:10ED40000F9466F381E491EE60E00F942FF386E078
:10ED500090E061E070E00F94A5F30F944DF381E62D
:10ED600091EE60E00F942FF383ED91EE60E00F944D
:10ED700066F381E591EE60E00F942FF38DEC91EE58
:10ED800060E00F9466F381E791EE60E00F942FF35B
:10ED90008EE10F947EF388E90F947EF381E00F9467
:10EDA0007EF30F944DF381E891EE60E00F942FF322
:10EDB00019E0E0E0F0E010935700E4918E2F0F94FB
:10EDC0007EF30F944DF381E991EE60E00F942FF301
:10EDD000E3E0F0E010935700E4918E2F0F947EF360
:10EDE0000F944DF381EA91EE60E00F942FF3E2E08F
:10EDF000F0E010935700E4918E2F0F947EF30F9460
:10EE00004DF381EB91EE60E00F942FF3E1E0F0E041
:10EE1000109357001491812F0F947EF30F944DF3AC
:10EE200002CF85EA92EE62E00F9466F385E592EEFA
:10EE300060E00F9466F30F944DF300E010E019C00A
:10EE4000C8016F2D0F94E2FFFF2031F483E592EEAD
:10EE500060E00F942FF30BC0F092C6008091C000C9
:10EE600086FFFCCF8091C00080648093C0000F5F5C
:10EE70001F4FC80181519F41AA2797FDA095BA2F26
:10EE8000ABBFFC01F7905AE2F51621F062E00030CA
:10EE90001607B1F60F944DF30F944DF381E692EE01
:10EEA00060E00F9466F30F944DF3CC24DD2400E072
:10EEB00010E01EC0C8010F94DAFFF82E882331F449
:10EEC00083E592EE60E00F942FF30BC08093C600B1
:10EED0008091C00086FFFCCF8091C0008064809349
:10EEE000C000FE1419F00894C11CD11C0F5F1F4F05
:10EEF000C80181519F41AA2797FDA095BA2FABBFAA
:10EF0000FC01E7907AE2E71621F082E00030180772
:10EF100089F60F944DF30F944DF38CE692EE60E07A
:10EF20000F942FF3C60161E070E00F94A5F30F94E6
:10EF30004DF30F944DF310920002109201021092C3
:10EF40000202109203026FCE83EB92EE62E00F9406
:10EF500066F36F9A779A16C0779880E090E0E8EEB3
:10EF6000F3E03197F1F7019684369105C1F7779A6E
:10EF700080E090E0E8EEF3E03197F1F70196843617
:10EF80009105C1F78091C00087FFE6CF8091C00056
:10EF900087FFFCCF95C48FEB92EE62E00F9466F38F
:10EFA00040910002509101026091020270910302AF
:10EFB00081E020E10F942CF48091000290910102F5
:10EFC000A0910202B091030280509F4FAF4FBF4FFC
:10EFD0008093000290930102A0930202B093030277
:10EFE00080509041A040B04008F41DCEA4CF8DECDD
:10EFF00092EE62E00F9466F3409104025091050294
:10F00000609106027091070280E020E10F942CF4D9
:10F010008091040290910502A0910602B09107022E
:10F0200080509F4FAF4FBF4F8093040290930502D3
:10F03000A0930602B0930702F6CD8AED92EE62E04D
:10F040000F9466F385E892EE60E00F9466F389E929
:10F0500092EE60E00F9466F385EA92EE60E00F9422
:10F0600066F383EB92EE60E00F9466F38FEB92EE23
:10F0700060E00F9466F38DEC92EE60E00F9466F31F
:10F080008AED92EE60E00F9466F381EE92EE60E01E
:10F090000F9466F382EF92EE60E00F9466F38CE0DB
:10F0A00093EE60E00F9466F387E193EE60E00F94D7
:10F0B00066F380E393EEB4CD81EE92EE62E00F94BE
:10F0C00066F381E40F9416F482E40F9416F483E45B
:10F0D0000F9416F484E40F9416F485E40F9416F458
:10F0E00086E40F9416F487E40F9416F488E40F94E2
:10F0F00016F48AE40F9416F48BE40F9416F48CE45F
:10F100000F9416F490CD82EF92EE62E00F9466F3C6
:10F1100099249394AA24BB2445C48CE093EE62E026
:10F120000F9466F3409108025091090260910A021F
:10F1300070910B0282E020E10F942CF48091080280
:10F1400090910902A0910A02B0910B0280509F4F4A
:10F15000AF4FBF4F8093080290930902A0930A0219
:10F16000B0930B0260CD87E193EE62E00F9466F3FB
:10F1700084EE90EE60E00F9466F389ED91EE60E02E
:10F180000F9466F309E715EECC5DDE4F1983088313
:10F19000C452D140662477244301CA5DDE4F1982F0
:10F1A0001882C652D140A4019301569547953795D0
:10F1B0002795C85DDE4F288339834A835B83C85215
:10F1C000D140CA5DDE4F48815981C652D1404F5F60
:10F1D0005F4FCA5DDE4F59834883C652D140CA0192
:10F1E00062E070E00F94A5F350E25093C600809166
:10F1F000C00086FFFCCF8091C00080648093C00077
:10F200006DE26093C6008091C00086FFFCCF8091C4
:10F21000C00080648093C00070E27093C60080914B
:10F22000C00086FFFCCF8091C00080648093C00046
:10F23000C85DDE4FE880F9800A811B81C852D14049
:10F24000BB27A12F902F8F2D0F947EF3C85DDE4F2B
:10F250008881C852D1400F947EF370E2F72EF0926D
:10F26000C6008091C00086FFFCCF8091C000806402
:10F270008093C0000DE30093C6008091C00086FF1C
:10F28000FCCF8091C00080648093C00010E2109396
:10F29000C6008091C00086FFFCCF8091C0008064D2
:10F2A0008093C0008BBEF3012791C45DDE4F28839D
:10F2B000CC52D140A22EBB24CC24DD240894611C66
:10F2C000711C811C911C8BBEF3018791282E332465
:10F2D00044245524142D032DF22CEE24EA0CFB1C9F
:10F2E0000C1D1D1D0894611C711C811C911C8BBE82
:10F2F000F3013791C35DDE4F3883CD52D14008947E
:10F30000611C711C811C911C8BBEF3014791C25D75
:10F31000DE4F4883CE52D1402DEF3FEF4FEF5FEFEE
:10F32000620E731E841E951E0F947EF330E230939E
:10F33000C6008091C00086FFFCCF8091C000806431
:10F340008093C000C45DDE4F8881CC52D1400F94C1
:10F350007EF340E24093C6008091C00086FFFCCF60
:10F360008091C00080648093C000C25DDE4F8881C0
:10F37000CE52D1400F947EF350E25093C60080915C
:10F38000C00086FFFCCF8091C00080648093C000E5
:10F39000C35DDE4F8881CD52D1400F947EF360E291
:10F3A0006093C6008091C00086FFFCCF8091C000B2
:10F3B00080648093C0007FEFE7167FEFF70670E070
:10F3C000070770E0170731F48EE092EE60E00F94CB
:10F3D0002FF3DFC0D801C7018070907CA070B0709F
:10F3E0008050904CA040B040D1F52FEF3FE340E07B
:10F3F00050E0E222F32204231523C85DDE4FA880EB
:10F40000B980CA80DB80C852D140AE0CBF1CC01E80
:10F41000D11EAA0CBB1CCC1CDD1C88E192EE60E066
:10F420000F942FF3BB27A12F902F8F2D0F947EF3D6
:10F430008E2D0F947EF330E23093C6008091C00091
:10F4400086FFFCCF8091C00080648093C0004EE3B3
:10F450004093C6008091C00086FFFCCF87C06EE05D
:10F460007EEF80E090E0E622F722082319237CE07B
:10F47000E71674E9F70670E0070770E0170709F070
:10F4800088C0C25DDE4F8881CE52D140E82EFF2475
:10F4900000E010E0102F0F2DFE2CEE24C35DDE4F98
:10F4A0009881CD52D140E90EF11C011D111DD601EC
:10F4B000C50181709070A070B070DC019927882719
:10F4C000E80EF91E0A1F1B1F20EF30E040E050E05D
:10F4D000A222B322C422D522F1E1AA0CBB1CCC1C6F
:10F4E000DD1CFA95D1F7EA0CFB1C0C1D1D1D41E03B
:10F4F00050E060E070E02422352246225722E5E108
:10F50000220C331C441C551CEA95D1F7E20CF31C69
:10F51000041D151D57016801AA0CBB1CCC1CDD1C69
:10F520008FE192EE60E00F942FF3C801AA27BB276A
:10F530000F947EF3BB27A12F902F8F2D0F947EF376
:10F540008E2D0F947EF350E25093C6008091C00040
:10F5500086FFFCCF8091C00080648093C0006EE382
:10F560006093C6008091C00086FFFCCF8091C000F0
:10F5700080648093C000C601AA27BB270F947EF346
:10F58000BB27AD2D9C2D8B2D0F947EF38A2D0F94D0
:10F590007EF370E27093C6008091C00086FFFCCFBE
:10F5A0008091C00080648093C000CC5DDE4FE88114
:10F5B000F981C452D140CF01AA2797FDA095BA2F57
:10F5C000ABBFFC018791969160E00F942FF30F94ED
:10F5D0004DF3CC5DDE4F08811981C452D1400E5FDE
:10F5E0001F4FCC5DDE4F19830883C452D140CA5DE2
:10F5F000DE4F28813981C652D1402933310509F4C3
:10F6000012CB44E050E060E070E0640E751E861E90
:10F61000971EC9CD80E393EE62E00F9466F384E217
:10F6200092EE60E00F942FF38091C00087FFFCCF33
:10F630001091C6001F751093C6008091C00086FF10
:10F64000FCCF8091C00080648093C0000F944DF384
:10F65000812F81548A3108F036C1163409F495C0DF
:10F66000173490F4133409F44EC0143430F41134C8
:10F67000F1F0123409F01DC130C0143409F459C03E
:10F68000153409F016C16BC01A3409F4C4C01B3418
:10F6900038F4173409F48FC0183409F00AC1A1C036
:10F6A0001B3409F4D2C01C3409F003C1E8C08FEF49
:10F6B00081B90DC082B1809582B980E090E0E8EE1A
:10F6C000F3E03197F1F70196883C9105C1F78091FD
:10F6D000C00087FFEFCF12B8EFC08FEF84B90DC025
:10F6E00085B1809585B980E090E0E8EEF3E0319750
:10F6F000F1F70196883C9105C1F78091C00087FF22
:10F70000EFCF15B8D9C08FEF87B90DC088B18095FC
:10F7100088B980E090E0E8EEF3E03197F1F70196E8
:10F72000883C9105C1F78091C00087FFEFCF18B8E2
:10F73000C3C08FEF8AB90DC08BB180958BB980E0C3
:10F7400090E0E8EEF3E03197F1F70196883C9105FF
:10F75000C1F78091C00087FFEFCF1BB8ADC08FEF1E
:10F760008DB90DC08EB180958EB980E090E0E8EE45
:10F77000F3E03197F1F70196883C9105C1F780914C
:10F78000C00087FFEFCF1EB897C08FEF80BB0DC0C2
:10F7900081B3809581BB80E090E0E8EEF3E03197A3
:10F7A000F1F70196883C9105C1F78091C00087FF71
:10F7B000EFCF11BA81C08FEF83BB0DC084B38095AA
:10F7C00084BB80E090E0E8EEF3E03197F1F701963A
:10F7D000883C9105C1F78091C00087FFEFCF14BA34
:10F7E0006BC08FEF809301010FC080910201809563
:10F7F0008093020180E090E0E8EEF3E03197F1F7CA
:10F800000196883C9105C1F78091C00087FFEDCF3C
:10F810001092020151C08FEF809304010FC08091BC
:10F82000050180958093050180E090E0E8EEF3E02B
:10F830003197F1F70196883C9105C1F78091C0009E
:10F8400087FFEDCF1092050137C08FEF809307013E
:10F850000FC08091080180958093080180E090E0BE
:10F86000E8EEF3E03197F1F70196883C9105C1F796
:10F870008091C00087FFEDCF109208011DC08FEF6F
:10F8800080930A010FC080910B01809580930B013A
:10F8900080E090E0E8EEF3E03197F1F70196883CE4
:10F8A0009105C1F78091C00087FFEDCF10920B0149
:10F8B00003C08FE292EEB4C98091C00087FFFCCFF5
:10F8C0008091C600B0C982E492EEAAC98CE191EEA3
:10F8D000A7C9AA24BB24933061F1943028F4913055
:10F8E00089F0923008F508C09530B1F1953040F1BB
:10F8F000963009F053C04EC02B3109F01BC991E07E
:10F900006BE118C9213041F0C15DDE4F5881CF5203
:10F91000D140251709F002C36227C15DDE4F28835D
:10F92000CF52D14092E006C9B22FA0E0622793E007
:10F9300001C9822F90E0A82BB92B622794E0FAC866
:10F940002E3009F0EBC2622795E0C05DDE4F1982D0
:10F950001882C053D140EEC8E1E0F0E0EC0FFD1F8B
:10F96000C05DDE4FE880F980C053D140EE0DFF1D31
:10F97000208387010F5F1F4FC05DDE4F198308830F
:10F98000C053D14062270A171B0709F0D3C8D8011A
:10F9900096E0D0C8261709F0C1C203C0973009F01D
:10F9A000C9C899248981833109F4FCC08431C8F421
:10F9B000863009F4C2C0873050F4823009F4F0C0B8
:10F9C000833009F458C0813009F00AC23EC0813149
:10F9D00009F462C0823108F0A6C0803109F000C28B
:10F9E000DFC0883109F472C0893150F4853109F4DF
:10F9F000D9C0853108F477C1863109F0F1C173C1EE
:10FA00008A3109F457C08A3108F47CC08B3109F47B
:10FA100046C08D3109F0E4C18D81803311F090E052
:10FA20000AC08F81882311F49EE105C0813011F056
:10FA300091E001C098E91A821B828D818C831D821E
:10FA40009E831F8227E030E0CFC11A8288E08B833B
:10FA500081E48C8386E58D8382E58E8389E48F83C0
:10FA600083E5888780E589878FE58A8782E38B87AE
:10FA70002BE030E0B9C18A81813941F0823941F00F
:10FA8000803911F48FE005C080E003C082E001C03E
:10FA90008AE01A828B8344C09924939481C08D811B
:10FAA000882311F48EE12CC0813011F081E028C050
:10FAB00088E926C01A82E1E0F0E089E080935700EF
:10FAC00084918B831C8224E030E08EC18B81803551
:10FAD00089F48C81883039F4E2E0F0E089E08093A9
:10FAE000570084910DC0E0E0F0E089E0809357007A
:10FAF000849106C0E3E0F0E089E0809357008491B0
:10FB00001A82DFCF8D81836C99E0E1E0F0E0082E6E
:10FB100090935700E89507B600FCFDCF1A821B8230
:10FB200023E030E061C11A82CE5CDE4F1882198278
:10FB30001A821B82C253D14055C18A8190E0A0E055
:10FB4000B0E0582F4427332722278B8190E0A0E094
:10FB5000B0E0DC0199278827282B392B4A2B5B2B17
:10FB60008D8190E0A0E0B0E0282B392B4A2B5B2B55
:10FB70008C8190E0A0E0B0E0BA2FA92F982F8827C1
:10FB8000282B392B4A2B5B2B220F331F441F551F69
:10FB9000C05EDE4F288339834A835B83C052D140E5
:10FBA0001A8220C19A812B81833149F0C05EDE4FD9
:10FBB000488159816A817B81C052D1408AC0CE5C24
:10FBC000DE4F488159816A817B81C253D1404030E8
:10FBD00080EC580783E0680780E07807F0F483E062
:10FBE000FA0160935B0080935700E89507B600FC2C
:10FBF000FDCFCE5CDE4F488159816A817B81C25343
:10FC0000D14040505F4F6F4F7F4FCE5CDE4F4883F7
:10FC100059836A837B83C253D140C95CDE4F98838A
:10FC2000C753D140CA5CDE4F1882C653D140022F61
:10FC300010E0CA5CDE4F68817981C653D140062B43
:10FC4000172BC05EDE4F488159816A817B81C0528B
:10FC5000D140DE011B9631E08C9111962C911197C9
:10FC60001296C75CDE4F2883C953D140C85CDE4F73
:10FC70001882C853D14090E0C85CDE4FE881F9811A
:10FC8000C853D1408E2B9F2B0C01FA0160935B006F
:10FC900030935700E89511244E5F5F4F6F4F7F4FB1
:10FCA00002501040C9F685E0C05EDE4FE880F98062
:10FCB0000A811B81C052D140F70100935B00809301
:10FCC0005700E89507B600FCFDCF81E1809357000F
:10FCD000E8951A82C05EDE4F488359836A837B832E
:10FCE000C052D1407FC0FA80C55CDE4FF882CB5352
:10FCF000D140C65CDE4F1882CA53D1408B81C82EDA
:10FD0000DD24C65CDE4F08811981CA53D140C02A68
:10FD1000D12A1A828981BE016D5F7F4F843121F51E
:10FD20009601C05EDE4FE880F9800A811B81C052D7
:10FD3000D1400BBFF70187919691DB018C9311960F
:10FD40009C936E5F7F4FD801C7010296A11DB11D24
:10FD5000C05EDE4F88839983AA83BB83C052D140A3
:10FD600022503040F1F636C0C05EDE4F2881398126
:10FD70004A815B81C052D1400894C108D108760104
:10FD800000E010E00894C11CD11C0894E11CF11C97
:10FD9000011D111DE20EF31E041F151F21BDBB27FF
:10FDA000A52F942F832F82BD2F5F3F4F4F4F5F4F63
:10FDB000F89A80B5DB018D93BD012E153F054007F4
:10FDC000510761F7C05EDE4F288339834A835B8326
:10FDD000C052D14096012D5F3F4FFB01108204C0FD
:10FDE00080EC8A8322E030E08BE18093C600809132
:10FDF000C00086FFFCCF8091C00080648093C0006B
:10FE0000C15DDE4FF881CF52D140F093C6008091A2
:10FE1000C00086FFFCCF8091C00080648093C0004A
:10FE2000432F3093C6008091C00086FFFCCF8091A5
:10FE3000C00080648093C000922F2093C600809100
:10FE4000C00086FFFCCF8091C00080648093C0001A
:10FE50008EE08093C6008091C00086FFFCCF809129
:10FE6000C00080648093C00065E1C15DDE4FE88022
:10FE7000CF52D1406E2569276427FE01319610C00C
:10FE800090819093C6008091C00086FFFCCF319690
:10FE90008091C00080648093C00069272150304069
:10FEA0002115310569F76093C6008091C00086FF77
:10FEB000FCCF8091C00080648093C0008EB18058D8
:10FEC0008EB9992081F4C15DDE4F0881CF52D140B7
:10FED0000F5FC15DDE4F0883CF52D14090E0A0E0BC
:10FEE000B0E00D949AF56F98779880E090E028EE56
:10FEF00033E0F9013197F1F7019684369105C9F79E
:10FF000000008091C0008D7F8093C00081E18093CC
:10FF10005700E895EE27FF270994FFCF90E00D9456
:10FF20009AF597FB092E07260AD077FD04D02ED02C
:10FF300006D000201AF4709561957F4F0895F6F76A
:10FF4000909581959F4F0895A1E21A2EAA1BBB1B85
:10FF5000FD010DC0AA1FBB1FEE1FFF1FA217B30795
:10FF6000E407F50720F0A21BB30BE40BF50B661FAB
:10FF7000771F881F991F1A9469F76095709580956F
:10FF800090959B01AC01BD01CF010895AA1BBB1B3D
:10FF900051E107C0AA1FBB1FA617B70710F0A61B89
:10FFA000B70B881F991F5A95A9F780959095BC01AA
:10FFB000CD010895F999FECF92BD81BDF89A992798
:10FFC00080B50895262FF999FECF1FBA92BD81BD45
:10FFD00020BD0FB6F894FA9AF99A0FBE01960895CB
:04FFE000F894FFCFC3
:040000033000E000E9
:00000001FF
